{
    "_format": "hh-sol-artifact-1",
    "contractName": "BaseSbt",
    "sourceName": "contracts/BaseSbt.sol",
    "abi": [
        {
            "inputs": [
                {
                    "internalType": "string",
                    "name": "_name",
                    "type": "string"
                },
                {
                    "internalType": "string",
                    "name": "_symbol",
                    "type": "string"
                },
                {
                    "internalType": "string",
                    "name": "_baseUri",
                    "type": "string"
                }
            ],
            "stateMutability": "nonpayable",
            "type": "constructor"
        },
        {
            "inputs": [],
            "name": "TokenIsSoulbound",
            "type": "error"
        },
        {
            "anonymous": false,
            "inputs": [
                {
                    "indexed": true,
                    "internalType": "address",
                    "name": "owner",
                    "type": "address"
                },
                {
                    "indexed": true,
                    "internalType": "address",
                    "name": "approved",
                    "type": "address"
                },
                {
                    "indexed": true,
                    "internalType": "uint256",
                    "name": "tokenId",
                    "type": "uint256"
                }
            ],
            "name": "Approval",
            "type": "event"
        },
        {
            "anonymous": false,
            "inputs": [
                {
                    "indexed": true,
                    "internalType": "address",
                    "name": "owner",
                    "type": "address"
                },
                {
                    "indexed": true,
                    "internalType": "address",
                    "name": "operator",
                    "type": "address"
                },
                {
                    "indexed": false,
                    "internalType": "bool",
                    "name": "approved",
                    "type": "bool"
                }
            ],
            "name": "ApprovalForAll",
            "type": "event"
        },
        {
            "anonymous": false,
            "inputs": [
                {
                    "indexed": true,
                    "internalType": "address",
                    "name": "previousOwner",
                    "type": "address"
                },
                {
                    "indexed": true,
                    "internalType": "address",
                    "name": "newOwner",
                    "type": "address"
                }
            ],
            "name": "OwnershipTransferred",
            "type": "event"
        },
        {
            "anonymous": false,
            "inputs": [
                {
                    "indexed": true,
                    "internalType": "address",
                    "name": "from",
                    "type": "address"
                },
                {
                    "indexed": true,
                    "internalType": "address",
                    "name": "to",
                    "type": "address"
                },
                {
                    "indexed": true,
                    "internalType": "uint256",
                    "name": "tokenId",
                    "type": "uint256"
                }
            ],
            "name": "Transfer",
            "type": "event"
        },
        {
            "inputs": [
                {
                    "internalType": "address",
                    "name": "to",
                    "type": "address"
                },
                {
                    "internalType": "uint256",
                    "name": "tokenId",
                    "type": "uint256"
                }
            ],
            "name": "approve",
            "outputs": [],
            "stateMutability": "nonpayable",
            "type": "function"
        },
        {
            "inputs": [
                {
                    "internalType": "address",
                    "name": "owner",
                    "type": "address"
                }
            ],
            "name": "balanceOf",
            "outputs": [
                {
                    "internalType": "uint256",
                    "name": "",
                    "type": "uint256"
                }
            ],
            "stateMutability": "view",
            "type": "function"
        },
        {
            "inputs": [
                {
                    "internalType": "uint256",
                    "name": "tokenId",
                    "type": "uint256"
                }
            ],
            "name": "getApproved",
            "outputs": [
                {
                    "internalType": "address",
                    "name": "",
                    "type": "address"
                }
            ],
            "stateMutability": "view",
            "type": "function"
        },
        {
            "inputs": [
                {
                    "internalType": "address",
                    "name": "owner",
                    "type": "address"
                },
                {
                    "internalType": "address",
                    "name": "operator",
                    "type": "address"
                }
            ],
            "name": "isApprovedForAll",
            "outputs": [
                {
                    "internalType": "bool",
                    "name": "",
                    "type": "bool"
                }
            ],
            "stateMutability": "view",
            "type": "function"
        },
        {
            "inputs": [],
            "name": "maxSupply",
            "outputs": [
                {
                    "internalType": "uint256",
                    "name": "",
                    "type": "uint256"
                }
            ],
            "stateMutability": "view",
            "type": "function"
        },
        {
            "inputs": [],
            "name": "name",
            "outputs": [
                {
                    "internalType": "string",
                    "name": "",
                    "type": "string"
                }
            ],
            "stateMutability": "view",
            "type": "function"
        },
        {
            "inputs": [],
            "name": "owner",
            "outputs": [
                {
                    "internalType": "address",
                    "name": "",
                    "type": "address"
                }
            ],
            "stateMutability": "view",
            "type": "function"
        },
        {
            "inputs": [
                {
                    "internalType": "uint256",
                    "name": "tokenId",
                    "type": "uint256"
                }
            ],
            "name": "ownerOf",
            "outputs": [
                {
                    "internalType": "address",
                    "name": "",
                    "type": "address"
                }
            ],
            "stateMutability": "view",
            "type": "function"
        },
        {
            "inputs": [],
            "name": "renounceOwnership",
            "outputs": [],
            "stateMutability": "nonpayable",
            "type": "function"
        },
        {
            "inputs": [
                {
                    "internalType": "address",
                    "name": "mintTo",
                    "type": "address"
                }
            ],
            "name": "safeMint",
            "outputs": [],
            "stateMutability": "nonpayable",
            "type": "function"
        },
        {
            "inputs": [
                {
                    "internalType": "address",
                    "name": "from",
                    "type": "address"
                },
                {
                    "internalType": "address",
                    "name": "to",
                    "type": "address"
                },
                {
                    "internalType": "uint256",
                    "name": "tokenId",
                    "type": "uint256"
                }
            ],
            "name": "safeTransferFrom",
            "outputs": [],
            "stateMutability": "nonpayable",
            "type": "function"
        },
        {
            "inputs": [
                {
                    "internalType": "address",
                    "name": "from",
                    "type": "address"
                },
                {
                    "internalType": "address",
                    "name": "to",
                    "type": "address"
                },
                {
                    "internalType": "uint256",
                    "name": "tokenId",
                    "type": "uint256"
                },
                {
                    "internalType": "bytes",
                    "name": "data",
                    "type": "bytes"
                }
            ],
            "name": "safeTransferFrom",
            "outputs": [],
            "stateMutability": "nonpayable",
            "type": "function"
        },
        {
            "inputs": [
                {
                    "internalType": "address",
                    "name": "operator",
                    "type": "address"
                },
                {
                    "internalType": "bool",
                    "name": "approved",
                    "type": "bool"
                }
            ],
            "name": "setApprovalForAll",
            "outputs": [],
            "stateMutability": "nonpayable",
            "type": "function"
        },
        {
            "inputs": [
                {
                    "internalType": "string",
                    "name": "_tokenURI",
                    "type": "string"
                }
            ],
            "name": "setTokenURI",
            "outputs": [],
            "stateMutability": "nonpayable",
            "type": "function"
        },
        {
            "inputs": [
                {
                    "internalType": "bytes4",
                    "name": "interfaceId",
                    "type": "bytes4"
                }
            ],
            "name": "supportsInterface",
            "outputs": [
                {
                    "internalType": "bool",
                    "name": "",
                    "type": "bool"
                }
            ],
            "stateMutability": "view",
            "type": "function"
        },
        {
            "inputs": [],
            "name": "symbol",
            "outputs": [
                {
                    "internalType": "string",
                    "name": "",
                    "type": "string"
                }
            ],
            "stateMutability": "view",
            "type": "function"
        },
        {
            "inputs": [],
            "name": "ticketURI",
            "outputs": [
                {
                    "internalType": "string",
                    "name": "",
                    "type": "string"
                }
            ],
            "stateMutability": "view",
            "type": "function"
        },
        {
            "inputs": [
                {
                    "internalType": "uint256",
                    "name": "tokenId",
                    "type": "uint256"
                }
            ],
            "name": "tokenURI",
            "outputs": [
                {
                    "internalType": "string",
                    "name": "",
                    "type": "string"
                }
            ],
            "stateMutability": "view",
            "type": "function"
        },
        {
            "inputs": [
                {
                    "internalType": "address",
                    "name": "from",
                    "type": "address"
                },
                {
                    "internalType": "address",
                    "name": "to",
                    "type": "address"
                },
                {
                    "internalType": "uint256",
                    "name": "tokenId",
                    "type": "uint256"
                }
            ],
            "name": "transferFrom",
            "outputs": [],
            "stateMutability": "nonpayable",
            "type": "function"
        },
        {
            "inputs": [
                {
                    "internalType": "address",
                    "name": "newOwner",
                    "type": "address"
                }
            ],
            "name": "transferOwnership",
            "outputs": [],
            "stateMutability": "nonpayable",
            "type": "function"
        }
    ],
    "bytecode": "0x60806040523480156200001157600080fd5b506040516200323e3803806200323e8339818101604052810190620000379190620003d2565b828281600090805190602001906200005192919062000185565b5080600190805190602001906200006a92919062000185565b5050506200008d62000081620000b760201b60201c565b620000bf60201b60201c565b600160088190555080600b9080519060200190620000ad92919062000185565b50505050620004f0565b600033905090565b6000600760009054906101000a900473ffffffffffffffffffffffffffffffffffffffff16905081600760006101000a81548173ffffffffffffffffffffffffffffffffffffffff021916908373ffffffffffffffffffffffffffffffffffffffff1602179055508173ffffffffffffffffffffffffffffffffffffffff168173ffffffffffffffffffffffffffffffffffffffff167f8be0079c531659141344cd1fd0a4f28419497f9722a3daafe3b4186f6b6457e060405160405180910390a35050565b8280546200019390620004ba565b90600052602060002090601f016020900481019282620001b7576000855562000203565b82601f10620001d257805160ff191683800117855562000203565b8280016001018555821562000203579182015b8281111562000202578251825591602001919060010190620001e5565b5b50905062000212919062000216565b5090565b5b808211156200023157600081600090555060010162000217565b5090565b6000604051905090565b600080fd5b600080fd5b600080fd5b600080fd5b6000601f19601f8301169050919050565b7f4e487b7100000000000000000000000000000000000000000000000000000000600052604160045260246000fd5b6200029e8262000253565b810181811067ffffffffffffffff82111715620002c057620002bf62000264565b5b80604052505050565b6000620002d562000235565b9050620002e3828262000293565b919050565b600067ffffffffffffffff82111562000306576200030562000264565b5b620003118262000253565b9050602081019050919050565b60005b838110156200033e57808201518184015260208101905062000321565b838111156200034e576000848401525b50505050565b60006200036b6200036584620002e8565b620002c9565b9050828152602081018484840111156200038a57620003896200024e565b5b620003978482856200031e565b509392505050565b600082601f830112620003b757620003b662000249565b5b8151620003c984826020860162000354565b91505092915050565b600080600060608486031215620003ee57620003ed6200023f565b5b600084015167ffffffffffffffff8111156200040f576200040e62000244565b5b6200041d868287016200039f565b935050602084015167ffffffffffffffff81111562000441576200044062000244565b5b6200044f868287016200039f565b925050604084015167ffffffffffffffff81111562000473576200047262000244565b5b62000481868287016200039f565b9150509250925092565b7f4e487b7100000000000000000000000000000000000000000000000000000000600052602260045260246000fd5b60006002820490506001821680620004d357607f821691505b60208210811415620004ea57620004e96200048b565b5b50919050565b612d3e80620005006000396000f3fe608060405234801561001057600080fd5b506004361061012c5760003560e01c8063715018a6116100ad578063c87b56dd11610071578063c87b56dd1461031b578063d5abeb011461034b578063e0df5b6f14610369578063e985e9c514610385578063f2fde38b146103b55761012c565b8063715018a61461029d5780638da5cb5b146102a757806395d89b41146102c5578063a22cb465146102e3578063b88d4fde146102ff5761012c565b806326b138cb116100f457806326b138cb146101e757806340d097c31461020557806342842e0e146102215780636352211e1461023d57806370a082311461026d5761012c565b806301ffc9a71461013157806306fdde0314610161578063081812fc1461017f578063095ea7b3146101af57806323b872dd146101cb575b600080fd5b61014b60048036038101906101469190611e48565b6103d1565b6040516101589190611e90565b60405180910390f35b6101696104b3565b6040516101769190611f44565b60405180910390f35b61019960048036038101906101949190611f9c565b610545565b6040516101a6919061200a565b60405180910390f35b6101c960048036038101906101c49190612051565b61058b565b005b6101e560048036038101906101e09190612091565b6106a3565b005b6101ef610703565b6040516101fc9190611f44565b60405180910390f35b61021f600480360381019061021a91906120e4565b610791565b005b61023b60048036038101906102369190612091565b6107b1565b005b61025760048036038101906102529190611f9c565b6107d1565b604051610264919061200a565b60405180910390f35b610287600480360381019061028291906120e4565b610858565b6040516102949190612120565b60405180910390f35b6102a5610910565b005b6102af610924565b6040516102bc919061200a565b60405180910390f35b6102cd61094e565b6040516102da9190611f44565b60405180910390f35b6102fd60048036038101906102f89190612167565b6109e0565b005b610319600480360381019061031491906122dc565b6109f6565b005b61033560048036038101906103309190611f9c565b610a58565b6040516103429190611f44565b60405180910390f35b610353610a6a565b6040516103609190612120565b60405180910390f35b610383600480360381019061037e9190612400565b610a70565b005b61039f600480360381019061039a9190612449565b610a92565b6040516103ac9190611e90565b60405180910390f35b6103cf60048036038101906103ca91906120e4565b610b26565b005b60007f80ac58cd000000000000000000000000000000000000000000000000000000007bffffffffffffffffffffffffffffffffffffffffffffffffffffffff1916827bffffffffffffffffffffffffffffffffffffffffffffffffffffffff1916148061049c57507f5b5e139f000000000000000000000000000000000000000000000000000000007bffffffffffffffffffffffffffffffffffffffffffffffffffffffff1916827bffffffffffffffffffffffffffffffffffffffffffffffffffffffff1916145b806104ac57506104ab82610baa565b5b9050919050565b6060600080546104c2906124b8565b80601f01602080910402602001604051908101604052809291908181526020018280546104ee906124b8565b801561053b5780601f106105105761010080835404028352916020019161053b565b820191906000526020600020905b81548152906001019060200180831161051e57829003601f168201915b5050505050905090565b600061055082610c14565b6004600083815260200190815260200160002060009054906101000a900473ffffffffffffffffffffffffffffffffffffffff169050919050565b6000610596826107d1565b90508073ffffffffffffffffffffffffffffffffffffffff168373ffffffffffffffffffffffffffffffffffffffff161415610607576040517f08c379a00000000000000000000000000000000000000000000000000000000081526004016105fe9061255c565b60405180910390fd5b8073ffffffffffffffffffffffffffffffffffffffff16610626610c5f565b73ffffffffffffffffffffffffffffffffffffffff16148061065557506106548161064f610c5f565b610a92565b5b610694576040517f08c379a000000000000000000000000000000000000000000000000000000000815260040161068b906125ee565b60405180910390fd5b61069e8383610c67565b505050565b6106b46106ae610c5f565b82610d20565b6106f3576040517f08c379a00000000000000000000000000000000000000000000000000000000081526004016106ea90612680565b60405180910390fd5b6106fe838383610db5565b505050565b600b8054610710906124b8565b80601f016020809104026020016040519081016040528092919081815260200182805461073c906124b8565b80156107895780601f1061075e57610100808354040283529160200191610789565b820191906000526020600020905b81548152906001019060200180831161076c57829003601f168201915b505050505081565b6107a48161079f60096110af565b6110bd565b6107ae60096110db565b50565b6107cc838383604051806020016040528060008152506109f6565b505050565b6000806107dd836110f1565b9050600073ffffffffffffffffffffffffffffffffffffffff168173ffffffffffffffffffffffffffffffffffffffff16141561084f576040517f08c379a0000000000000000000000000000000000000000000000000000000008152600401610846906126ec565b60405180910390fd5b80915050919050565b60008073ffffffffffffffffffffffffffffffffffffffff168273ffffffffffffffffffffffffffffffffffffffff1614156108c9576040517f08c379a00000000000000000000000000000000000000000000000000000000081526004016108c09061277e565b60405180910390fd5b600360008373ffffffffffffffffffffffffffffffffffffffff1673ffffffffffffffffffffffffffffffffffffffff168152602001908152602001600020549050919050565b61091861112e565b61092260006111ac565b565b6000600760009054906101000a900473ffffffffffffffffffffffffffffffffffffffff16905090565b60606001805461095d906124b8565b80601f0160208091040260200160405190810160405280929190818152602001828054610989906124b8565b80156109d65780601f106109ab576101008083540402835291602001916109d6565b820191906000526020600020905b8154815290600101906020018083116109b957829003601f168201915b5050505050905090565b6109f26109eb610c5f565b8383611272565b5050565b610a07610a01610c5f565b83610d20565b610a46576040517f08c379a0000000000000000000000000000000000000000000000000000000008152600401610a3d90612680565b60405180910390fd5b610a52848484846113df565b50505050565b6060610a638261143b565b9050919050565b600a5481565b610a7861112e565b80600b9080519060200190610a8e929190611d39565b5050565b6000600560008473ffffffffffffffffffffffffffffffffffffffff1673ffffffffffffffffffffffffffffffffffffffff16815260200190815260200160002060008373ffffffffffffffffffffffffffffffffffffffff1673ffffffffffffffffffffffffffffffffffffffff16815260200190815260200160002060009054906101000a900460ff16905092915050565b610b2e61112e565b600073ffffffffffffffffffffffffffffffffffffffff168173ffffffffffffffffffffffffffffffffffffffff161415610b9e576040517f08c379a0000000000000000000000000000000000000000000000000000000008152600401610b9590612810565b60405180910390fd5b610ba7816111ac565b50565b60007f01ffc9a7000000000000000000000000000000000000000000000000000000007bffffffffffffffffffffffffffffffffffffffffffffffffffffffff1916827bffffffffffffffffffffffffffffffffffffffffffffffffffffffff1916149050919050565b610c1d8161154e565b610c5c576040517f08c379a0000000000000000000000000000000000000000000000000000000008152600401610c53906126ec565b60405180910390fd5b50565b600033905090565b816004600083815260200190815260200160002060006101000a81548173ffffffffffffffffffffffffffffffffffffffff021916908373ffffffffffffffffffffffffffffffffffffffff160217905550808273ffffffffffffffffffffffffffffffffffffffff16610cda836107d1565b73ffffffffffffffffffffffffffffffffffffffff167f8c5be1e5ebec7d5bd14f71427d1e84f3dd0314c0f7b2291e5b200ac8c7c3b92560405160405180910390a45050565b600080610d2c836107d1565b90508073ffffffffffffffffffffffffffffffffffffffff168473ffffffffffffffffffffffffffffffffffffffff161480610d6e5750610d6d8185610a92565b5b80610dac57508373ffffffffffffffffffffffffffffffffffffffff16610d9484610545565b73ffffffffffffffffffffffffffffffffffffffff16145b91505092915050565b8273ffffffffffffffffffffffffffffffffffffffff16610dd5826107d1565b73ffffffffffffffffffffffffffffffffffffffff1614610e2b576040517f08c379a0000000000000000000000000000000000000000000000000000000008152600401610e22906128a2565b60405180910390fd5b600073ffffffffffffffffffffffffffffffffffffffff168273ffffffffffffffffffffffffffffffffffffffff161415610e9b576040517f08c379a0000000000000000000000000000000000000000000000000000000008152600401610e9290612934565b60405180910390fd5b610ea8838383600161158f565b8273ffffffffffffffffffffffffffffffffffffffff16610ec8826107d1565b73ffffffffffffffffffffffffffffffffffffffff1614610f1e576040517f08c379a0000000000000000000000000000000000000000000000000000000008152600401610f15906128a2565b60405180910390fd5b6004600082815260200190815260200160002060006101000a81549073ffffffffffffffffffffffffffffffffffffffff02191690556001600360008573ffffffffffffffffffffffffffffffffffffffff1673ffffffffffffffffffffffffffffffffffffffff168152602001908152602001600020600082825403925050819055506001600360008473ffffffffffffffffffffffffffffffffffffffff1673ffffffffffffffffffffffffffffffffffffffff16815260200190815260200160002060008282540192505081905550816002600083815260200190815260200160002060006101000a81548173ffffffffffffffffffffffffffffffffffffffff021916908373ffffffffffffffffffffffffffffffffffffffff160217905550808273ffffffffffffffffffffffffffffffffffffffff168473ffffffffffffffffffffffffffffffffffffffff167fddf252ad1be2c89b69c2b068fc378daa952ba7f163c4a11628f55a4df523b3ef60405160405180910390a46110aa83838360016115ab565b505050565b600081600001549050919050565b6110d78282604051806020016040528060008152506115b1565b5050565b6001816000016000828254019250508190555050565b60006002600083815260200190815260200160002060009054906101000a900473ffffffffffffffffffffffffffffffffffffffff169050919050565b611136610c5f565b73ffffffffffffffffffffffffffffffffffffffff16611154610924565b73ffffffffffffffffffffffffffffffffffffffff16146111aa576040517f08c379a00000000000000000000000000000000000000000000000000000000081526004016111a1906129a0565b60405180910390fd5b565b6000600760009054906101000a900473ffffffffffffffffffffffffffffffffffffffff16905081600760006101000a81548173ffffffffffffffffffffffffffffffffffffffff021916908373ffffffffffffffffffffffffffffffffffffffff1602179055508173ffffffffffffffffffffffffffffffffffffffff168173ffffffffffffffffffffffffffffffffffffffff167f8be0079c531659141344cd1fd0a4f28419497f9722a3daafe3b4186f6b6457e060405160405180910390a35050565b8173ffffffffffffffffffffffffffffffffffffffff168373ffffffffffffffffffffffffffffffffffffffff1614156112e1576040517f08c379a00000000000000000000000000000000000000000000000000000000081526004016112d890612a0c565b60405180910390fd5b80600560008573ffffffffffffffffffffffffffffffffffffffff1673ffffffffffffffffffffffffffffffffffffffff16815260200190815260200160002060008473ffffffffffffffffffffffffffffffffffffffff1673ffffffffffffffffffffffffffffffffffffffff16815260200190815260200160002060006101000a81548160ff0219169083151502179055508173ffffffffffffffffffffffffffffffffffffffff168373ffffffffffffffffffffffffffffffffffffffff167f17307eab39ab6107e8899845ad3d59bd9653f200f220920489ca2b5937696c31836040516113d29190611e90565b60405180910390a3505050565b6113ea848484610db5565b6113f68484848461160c565b611435576040517f08c379a000000000000000000000000000000000000000000000000000000000815260040161142c90612a9e565b60405180910390fd5b50505050565b606061144682610c14565b6000600660008481526020019081526020016000208054611466906124b8565b80601f0160208091040260200160405190810160405280929190818152602001828054611492906124b8565b80156114df5780601f106114b4576101008083540402835291602001916114df565b820191906000526020600020905b8154815290600101906020018083116114c257829003601f168201915b5050505050905060006114f06117a3565b9050600081511415611506578192505050611549565b60008251111561153b578082604051602001611523929190612afa565b60405160208183030381529060405292505050611549565b611544846117ba565b925050505b919050565b60008073ffffffffffffffffffffffffffffffffffffffff16611570836110f1565b73ffffffffffffffffffffffffffffffffffffffff1614159050919050565b6115998484611822565b6115a5848484846118c7565b50505050565b50505050565b6115bb83836118cd565b6115c8600084848461160c565b611607576040517f08c379a00000000000000000000000000000000000000000000000000000000081526004016115fe90612a9e565b60405180910390fd5b505050565b600061162d8473ffffffffffffffffffffffffffffffffffffffff16611aeb565b15611796578373ffffffffffffffffffffffffffffffffffffffff1663150b7a02611656610c5f565b8786866040518563ffffffff1660e01b81526004016116789493929190612b73565b602060405180830381600087803b15801561169257600080fd5b505af19250505080156116c357506040513d601f19601f820116820180604052508101906116c09190612bd4565b60015b611746573d80600081146116f3576040519150601f19603f3d011682016040523d82523d6000602084013e6116f8565b606091505b5060008151141561173e576040517f08c379a000000000000000000000000000000000000000000000000000000000815260040161173590612a9e565b60405180910390fd5b805181602001fd5b63150b7a0260e01b7bffffffffffffffffffffffffffffffffffffffffffffffffffffffff1916817bffffffffffffffffffffffffffffffffffffffffffffffffffffffff19161491505061179b565b600190505b949350505050565b606060405180602001604052806000815250905090565b60606117c582610c14565b60006117cf6117a3565b905060008151116117ef576040518060200160405280600081525061181a565b806117f984611b0e565b60405160200161180a929190612afa565b6040516020818303038152906040525b915050919050565b600073ffffffffffffffffffffffffffffffffffffffff168273ffffffffffffffffffffffffffffffffffffffff161415801561188c5750600073ffffffffffffffffffffffffffffffffffffffff168173ffffffffffffffffffffffffffffffffffffffff1614155b156118c3576040517fb1642c9e00000000000000000000000000000000000000000000000000000000815260040160405180910390fd5b5050565b50505050565b600073ffffffffffffffffffffffffffffffffffffffff168273ffffffffffffffffffffffffffffffffffffffff16141561193d576040517f08c379a000000000000000000000000000000000000000000000000000000000815260040161193490612c4d565b60405180910390fd5b6119468161154e565b15611986576040517f08c379a000000000000000000000000000000000000000000000000000000000815260040161197d90612cb9565b60405180910390fd5b61199460008383600161158f565b61199d8161154e565b156119dd576040517f08c379a00000000000000000000000000000000000000000000000000000000081526004016119d490612cb9565b60405180910390fd5b6001600360008473ffffffffffffffffffffffffffffffffffffffff1673ffffffffffffffffffffffffffffffffffffffff16815260200190815260200160002060008282540192505081905550816002600083815260200190815260200160002060006101000a81548173ffffffffffffffffffffffffffffffffffffffff021916908373ffffffffffffffffffffffffffffffffffffffff160217905550808273ffffffffffffffffffffffffffffffffffffffff16600073ffffffffffffffffffffffffffffffffffffffff167fddf252ad1be2c89b69c2b068fc378daa952ba7f163c4a11628f55a4df523b3ef60405160405180910390a4611ae76000838360016115ab565b5050565b6000808273ffffffffffffffffffffffffffffffffffffffff163b119050919050565b606060006001611b1d84611be6565b01905060008167ffffffffffffffff811115611b3c57611b3b6121b1565b5b6040519080825280601f01601f191660200182016040528015611b6e5781602001600182028036833780820191505090505b509050600082602001820190505b600115611bdb578080600190039150507f3031323334353637383961626364656600000000000000000000000000000000600a86061a8153600a8581611bc557611bc4612cd9565b5b0494506000851415611bd657611bdb565b611b7c565b819350505050919050565b600080600090507a184f03e93ff9f4daa797ed6e38ed64bf6a1f0100000000000000008310611c44577a184f03e93ff9f4daa797ed6e38ed64bf6a1f0100000000000000008381611c3a57611c39612cd9565b5b0492506040810190505b6d04ee2d6d415b85acef81000000008310611c81576d04ee2d6d415b85acef81000000008381611c7757611c76612cd9565b5b0492506020810190505b662386f26fc100008310611cb057662386f26fc100008381611ca657611ca5612cd9565b5b0492506010810190505b6305f5e1008310611cd9576305f5e1008381611ccf57611cce612cd9565b5b0492506008810190505b6127108310611cfe576127108381611cf457611cf3612cd9565b5b0492506004810190505b60648310611d215760648381611d1757611d16612cd9565b5b0492506002810190505b600a8310611d30576001810190505b80915050919050565b828054611d45906124b8565b90600052602060002090601f016020900481019282611d675760008555611dae565b82601f10611d8057805160ff1916838001178555611dae565b82800160010185558215611dae579182015b82811115611dad578251825591602001919060010190611d92565b5b509050611dbb9190611dbf565b5090565b5b80821115611dd8576000816000905550600101611dc0565b5090565b6000604051905090565b600080fd5b600080fd5b60007fffffffff0000000000000000000000000000000000000000000000000000000082169050919050565b611e2581611df0565b8114611e3057600080fd5b50565b600081359050611e4281611e1c565b92915050565b600060208284031215611e5e57611e5d611de6565b5b6000611e6c84828501611e33565b91505092915050565b60008115159050919050565b611e8a81611e75565b82525050565b6000602082019050611ea56000830184611e81565b92915050565b600081519050919050565b600082825260208201905092915050565b60005b83811015611ee5578082015181840152602081019050611eca565b83811115611ef4576000848401525b50505050565b6000601f19601f8301169050919050565b6000611f1682611eab565b611f208185611eb6565b9350611f30818560208601611ec7565b611f3981611efa565b840191505092915050565b60006020820190508181036000830152611f5e8184611f0b565b905092915050565b6000819050919050565b611f7981611f66565b8114611f8457600080fd5b50565b600081359050611f9681611f70565b92915050565b600060208284031215611fb257611fb1611de6565b5b6000611fc084828501611f87565b91505092915050565b600073ffffffffffffffffffffffffffffffffffffffff82169050919050565b6000611ff482611fc9565b9050919050565b61200481611fe9565b82525050565b600060208201905061201f6000830184611ffb565b92915050565b61202e81611fe9565b811461203957600080fd5b50565b60008135905061204b81612025565b92915050565b6000806040838503121561206857612067611de6565b5b60006120768582860161203c565b925050602061208785828601611f87565b9150509250929050565b6000806000606084860312156120aa576120a9611de6565b5b60006120b88682870161203c565b93505060206120c98682870161203c565b92505060406120da86828701611f87565b9150509250925092565b6000602082840312156120fa576120f9611de6565b5b60006121088482850161203c565b91505092915050565b61211a81611f66565b82525050565b60006020820190506121356000830184612111565b92915050565b61214481611e75565b811461214f57600080fd5b50565b6000813590506121618161213b565b92915050565b6000806040838503121561217e5761217d611de6565b5b600061218c8582860161203c565b925050602061219d85828601612152565b9150509250929050565b600080fd5b600080fd5b7f4e487b7100000000000000000000000000000000000000000000000000000000600052604160045260246000fd5b6121e982611efa565b810181811067ffffffffffffffff82111715612208576122076121b1565b5b80604052505050565b600061221b611ddc565b905061222782826121e0565b919050565b600067ffffffffffffffff821115612247576122466121b1565b5b61225082611efa565b9050602081019050919050565b82818337600083830152505050565b600061227f61227a8461222c565b612211565b90508281526020810184848401111561229b5761229a6121ac565b5b6122a684828561225d565b509392505050565b600082601f8301126122c3576122c26121a7565b5b81356122d384826020860161226c565b91505092915050565b600080600080608085870312156122f6576122f5611de6565b5b60006123048782880161203c565b94505060206123158782880161203c565b935050604061232687828801611f87565b925050606085013567ffffffffffffffff81111561234757612346611deb565b5b612353878288016122ae565b91505092959194509250565b600067ffffffffffffffff82111561237a576123796121b1565b5b61238382611efa565b9050602081019050919050565b60006123a361239e8461235f565b612211565b9050828152602081018484840111156123bf576123be6121ac565b5b6123ca84828561225d565b509392505050565b600082601f8301126123e7576123e66121a7565b5b81356123f7848260208601612390565b91505092915050565b60006020828403121561241657612415611de6565b5b600082013567ffffffffffffffff81111561243457612433611deb565b5b612440848285016123d2565b91505092915050565b600080604083850312156124605761245f611de6565b5b600061246e8582860161203c565b925050602061247f8582860161203c565b9150509250929050565b7f4e487b7100000000000000000000000000000000000000000000000000000000600052602260045260246000fd5b600060028204905060018216806124d057607f821691505b602082108114156124e4576124e3612489565b5b50919050565b7f4552433732313a20617070726f76616c20746f2063757272656e74206f776e6560008201527f7200000000000000000000000000000000000000000000000000000000000000602082015250565b6000612546602183611eb6565b9150612551826124ea565b604082019050919050565b6000602082019050818103600083015261257581612539565b9050919050565b7f4552433732313a20617070726f76652063616c6c6572206973206e6f7420746f60008201527f6b656e206f776e6572206f7220617070726f76656420666f7220616c6c000000602082015250565b60006125d8603d83611eb6565b91506125e38261257c565b604082019050919050565b60006020820190508181036000830152612607816125cb565b9050919050565b7f4552433732313a2063616c6c6572206973206e6f7420746f6b656e206f776e6560008201527f72206f7220617070726f76656400000000000000000000000000000000000000602082015250565b600061266a602d83611eb6565b91506126758261260e565b604082019050919050565b600060208201905081810360008301526126998161265d565b9050919050565b7f4552433732313a20696e76616c696420746f6b656e2049440000000000000000600082015250565b60006126d6601883611eb6565b91506126e1826126a0565b602082019050919050565b60006020820190508181036000830152612705816126c9565b9050919050565b7f4552433732313a2061646472657373207a65726f206973206e6f74206120766160008201527f6c6964206f776e65720000000000000000000000000000000000000000000000602082015250565b6000612768602983611eb6565b91506127738261270c565b604082019050919050565b600060208201905081810360008301526127978161275b565b9050919050565b7f4f776e61626c653a206e6577206f776e657220697320746865207a65726f206160008201527f6464726573730000000000000000000000000000000000000000000000000000602082015250565b60006127fa602683611eb6565b91506128058261279e565b604082019050919050565b60006020820190508181036000830152612829816127ed565b9050919050565b7f4552433732313a207472616e736665722066726f6d20696e636f72726563742060008201527f6f776e6572000000000000000000000000000000000000000000000000000000602082015250565b600061288c602583611eb6565b915061289782612830565b604082019050919050565b600060208201905081810360008301526128bb8161287f565b9050919050565b7f4552433732313a207472616e7366657220746f20746865207a65726f2061646460008201527f7265737300000000000000000000000000000000000000000000000000000000602082015250565b600061291e602483611eb6565b9150612929826128c2565b604082019050919050565b6000602082019050818103600083015261294d81612911565b9050919050565b7f4f776e61626c653a2063616c6c6572206973206e6f7420746865206f776e6572600082015250565b600061298a602083611eb6565b915061299582612954565b602082019050919050565b600060208201905081810360008301526129b98161297d565b9050919050565b7f4552433732313a20617070726f766520746f2063616c6c657200000000000000600082015250565b60006129f6601983611eb6565b9150612a01826129c0565b602082019050919050565b60006020820190508181036000830152612a25816129e9565b9050919050565b7f4552433732313a207472616e7366657220746f206e6f6e20455243373231526560008201527f63656976657220696d706c656d656e7465720000000000000000000000000000602082015250565b6000612a88603283611eb6565b9150612a9382612a2c565b604082019050919050565b60006020820190508181036000830152612ab781612a7b565b9050919050565b600081905092915050565b6000612ad482611eab565b612ade8185612abe565b9350612aee818560208601611ec7565b80840191505092915050565b6000612b068285612ac9565b9150612b128284612ac9565b91508190509392505050565b600081519050919050565b600082825260208201905092915050565b6000612b4582612b1e565b612b4f8185612b29565b9350612b5f818560208601611ec7565b612b6881611efa565b840191505092915050565b6000608082019050612b886000830187611ffb565b612b956020830186611ffb565b612ba26040830185612111565b8181036060830152612bb48184612b3a565b905095945050505050565b600081519050612bce81611e1c565b92915050565b600060208284031215612bea57612be9611de6565b5b6000612bf884828501612bbf565b91505092915050565b7f4552433732313a206d696e7420746f20746865207a65726f2061646472657373600082015250565b6000612c37602083611eb6565b9150612c4282612c01565b602082019050919050565b60006020820190508181036000830152612c6681612c2a565b9050919050565b7f4552433732313a20746f6b656e20616c7265616479206d696e74656400000000600082015250565b6000612ca3601c83611eb6565b9150612cae82612c6d565b602082019050919050565b60006020820190508181036000830152612cd281612c96565b9050919050565b7f4e487b7100000000000000000000000000000000000000000000000000000000600052601260045260246000fdfea2646970667358221220ee2db51d036ec0760371744cc19976b3168f77bd781d1a71e46e80fd333d6e8464736f6c63430008090033",
    "linkReferences": {},
    "deployedLinkReferences": {}
}