{
    "_format": "hh-sol-artifact-1",
    "contractName": "BaseTicket",
    "sourceName": "contracts/BaseTicket.sol",
    "abi": [
        {
            "inputs": [
                {
                    "internalType": "string",
                    "name": "_name",
                    "type": "string"
                },
                {
                    "internalType": "string",
                    "name": "_symbol",
                    "type": "string"
                },
                {
                    "internalType": "uint256",
                    "name": "_mintPrice",
                    "type": "uint256"
                },
                {
                    "internalType": "uint256",
                    "name": "_maxSupply",
                    "type": "uint256"
                },
                {
                    "internalType": "uint256",
                    "name": "_royaltyFeeInBips",
                    "type": "uint256"
                },
                {
                    "internalType": "address",
                    "name": "_royaltyAddress",
                    "type": "address"
                },
                {
                    "internalType": "string",
                    "name": "_tokenUri",
                    "type": "string"
                }
            ],
            "stateMutability": "nonpayable",
            "type": "constructor"
        },
        {
            "anonymous": false,
            "inputs": [
                {
                    "indexed": true,
                    "internalType": "address",
                    "name": "owner",
                    "type": "address"
                },
                {
                    "indexed": true,
                    "internalType": "address",
                    "name": "approved",
                    "type": "address"
                },
                {
                    "indexed": true,
                    "internalType": "uint256",
                    "name": "tokenId",
                    "type": "uint256"
                }
            ],
            "name": "Approval",
            "type": "event"
        },
        {
            "anonymous": false,
            "inputs": [
                {
                    "indexed": true,
                    "internalType": "address",
                    "name": "owner",
                    "type": "address"
                },
                {
                    "indexed": true,
                    "internalType": "address",
                    "name": "operator",
                    "type": "address"
                },
                {
                    "indexed": false,
                    "internalType": "bool",
                    "name": "approved",
                    "type": "bool"
                }
            ],
            "name": "ApprovalForAll",
            "type": "event"
        },
        {
            "anonymous": false,
            "inputs": [
                {
                    "indexed": true,
                    "internalType": "address",
                    "name": "previousOwner",
                    "type": "address"
                },
                {
                    "indexed": true,
                    "internalType": "address",
                    "name": "newOwner",
                    "type": "address"
                }
            ],
            "name": "OwnershipTransferred",
            "type": "event"
        },
        {
            "anonymous": false,
            "inputs": [
                {
                    "indexed": false,
                    "internalType": "address",
                    "name": "account",
                    "type": "address"
                }
            ],
            "name": "Paused",
            "type": "event"
        },
        {
            "anonymous": false,
            "inputs": [
                {
                    "indexed": true,
                    "internalType": "address",
                    "name": "from",
                    "type": "address"
                },
                {
                    "indexed": true,
                    "internalType": "address",
                    "name": "to",
                    "type": "address"
                },
                {
                    "indexed": true,
                    "internalType": "uint256",
                    "name": "tokenId",
                    "type": "uint256"
                }
            ],
            "name": "Transfer",
            "type": "event"
        },
        {
            "anonymous": false,
            "inputs": [
                {
                    "indexed": false,
                    "internalType": "address",
                    "name": "account",
                    "type": "address"
                }
            ],
            "name": "Unpaused",
            "type": "event"
        },
        {
            "inputs": [
                {
                    "internalType": "address",
                    "name": "to",
                    "type": "address"
                },
                {
                    "internalType": "uint256",
                    "name": "tokenId",
                    "type": "uint256"
                }
            ],
            "name": "approve",
            "outputs": [],
            "stateMutability": "nonpayable",
            "type": "function"
        },
        {
            "inputs": [
                {
                    "internalType": "address",
                    "name": "owner",
                    "type": "address"
                }
            ],
            "name": "balanceOf",
            "outputs": [
                {
                    "internalType": "uint256",
                    "name": "",
                    "type": "uint256"
                }
            ],
            "stateMutability": "view",
            "type": "function"
        },
        {
            "inputs": [
                {
                    "internalType": "uint256",
                    "name": "tokenId",
                    "type": "uint256"
                }
            ],
            "name": "burn",
            "outputs": [],
            "stateMutability": "nonpayable",
            "type": "function"
        },
        {
            "inputs": [
                {
                    "internalType": "uint256",
                    "name": "_salePrice",
                    "type": "uint256"
                }
            ],
            "name": "calculateRoyalty",
            "outputs": [
                {
                    "internalType": "uint256",
                    "name": "",
                    "type": "uint256"
                }
            ],
            "stateMutability": "view",
            "type": "function"
        },
        {
            "inputs": [
                {
                    "internalType": "uint256",
                    "name": "tokenId",
                    "type": "uint256"
                }
            ],
            "name": "getApproved",
            "outputs": [
                {
                    "internalType": "address",
                    "name": "",
                    "type": "address"
                }
            ],
            "stateMutability": "view",
            "type": "function"
        },
        {
            "inputs": [
                {
                    "internalType": "address",
                    "name": "owner",
                    "type": "address"
                },
                {
                    "internalType": "address",
                    "name": "operator",
                    "type": "address"
                }
            ],
            "name": "isApprovedForAll",
            "outputs": [
                {
                    "internalType": "bool",
                    "name": "",
                    "type": "bool"
                }
            ],
            "stateMutability": "view",
            "type": "function"
        },
        {
            "inputs": [],
            "name": "maxSupply",
            "outputs": [
                {
                    "internalType": "uint256",
                    "name": "",
                    "type": "uint256"
                }
            ],
            "stateMutability": "view",
            "type": "function"
        },
        {
            "inputs": [],
            "name": "mintPrice",
            "outputs": [
                {
                    "internalType": "uint256",
                    "name": "",
                    "type": "uint256"
                }
            ],
            "stateMutability": "view",
            "type": "function"
        },
        {
            "inputs": [],
            "name": "name",
            "outputs": [
                {
                    "internalType": "string",
                    "name": "",
                    "type": "string"
                }
            ],
            "stateMutability": "view",
            "type": "function"
        },
        {
            "inputs": [],
            "name": "owner",
            "outputs": [
                {
                    "internalType": "address",
                    "name": "",
                    "type": "address"
                }
            ],
            "stateMutability": "view",
            "type": "function"
        },
        {
            "inputs": [
                {
                    "internalType": "uint256",
                    "name": "tokenId",
                    "type": "uint256"
                }
            ],
            "name": "ownerOf",
            "outputs": [
                {
                    "internalType": "address",
                    "name": "",
                    "type": "address"
                }
            ],
            "stateMutability": "view",
            "type": "function"
        },
        {
            "inputs": [],
            "name": "pause",
            "outputs": [],
            "stateMutability": "nonpayable",
            "type": "function"
        },
        {
            "inputs": [],
            "name": "paused",
            "outputs": [
                {
                    "internalType": "bool",
                    "name": "",
                    "type": "bool"
                }
            ],
            "stateMutability": "view",
            "type": "function"
        },
        {
            "inputs": [],
            "name": "renounceOwnership",
            "outputs": [],
            "stateMutability": "nonpayable",
            "type": "function"
        },
        {
            "inputs": [],
            "name": "royaltyFeeInBips",
            "outputs": [
                {
                    "internalType": "uint256",
                    "name": "",
                    "type": "uint256"
                }
            ],
            "stateMutability": "view",
            "type": "function"
        },
        {
            "inputs": [
                {
                    "internalType": "uint256",
                    "name": "_tokenId",
                    "type": "uint256"
                },
                {
                    "internalType": "uint256",
                    "name": "_salePrice",
                    "type": "uint256"
                }
            ],
            "name": "royaltyInfo",
            "outputs": [
                {
                    "internalType": "address",
                    "name": "",
                    "type": "address"
                },
                {
                    "internalType": "uint256",
                    "name": "",
                    "type": "uint256"
                }
            ],
            "stateMutability": "view",
            "type": "function"
        },
        {
            "inputs": [
                {
                    "internalType": "address",
                    "name": "to",
                    "type": "address"
                }
            ],
            "name": "safeMint",
            "outputs": [],
            "stateMutability": "payable",
            "type": "function"
        },
        {
            "inputs": [
                {
                    "internalType": "address",
                    "name": "from",
                    "type": "address"
                },
                {
                    "internalType": "address",
                    "name": "to",
                    "type": "address"
                },
                {
                    "internalType": "uint256",
                    "name": "tokenId",
                    "type": "uint256"
                }
            ],
            "name": "safeTransferFrom",
            "outputs": [],
            "stateMutability": "nonpayable",
            "type": "function"
        },
        {
            "inputs": [
                {
                    "internalType": "address",
                    "name": "from",
                    "type": "address"
                },
                {
                    "internalType": "address",
                    "name": "to",
                    "type": "address"
                },
                {
                    "internalType": "uint256",
                    "name": "tokenId",
                    "type": "uint256"
                },
                {
                    "internalType": "bytes",
                    "name": "data",
                    "type": "bytes"
                }
            ],
            "name": "safeTransferFrom",
            "outputs": [],
            "stateMutability": "nonpayable",
            "type": "function"
        },
        {
            "inputs": [
                {
                    "internalType": "address",
                    "name": "operator",
                    "type": "address"
                },
                {
                    "internalType": "bool",
                    "name": "approved",
                    "type": "bool"
                }
            ],
            "name": "setApprovalForAll",
            "outputs": [],
            "stateMutability": "nonpayable",
            "type": "function"
        },
        {
            "inputs": [
                {
                    "internalType": "uint256",
                    "name": "_maxSupply",
                    "type": "uint256"
                }
            ],
            "name": "setMaxSupply",
            "outputs": [],
            "stateMutability": "nonpayable",
            "type": "function"
        },
        {
            "inputs": [
                {
                    "internalType": "string",
                    "name": "_tokenURI",
                    "type": "string"
                }
            ],
            "name": "setTokenURI",
            "outputs": [],
            "stateMutability": "nonpayable",
            "type": "function"
        },
        {
            "inputs": [
                {
                    "internalType": "bytes4",
                    "name": "interfaceId",
                    "type": "bytes4"
                }
            ],
            "name": "supportsInterface",
            "outputs": [
                {
                    "internalType": "bool",
                    "name": "",
                    "type": "bool"
                }
            ],
            "stateMutability": "view",
            "type": "function"
        },
        {
            "inputs": [],
            "name": "symbol",
            "outputs": [
                {
                    "internalType": "string",
                    "name": "",
                    "type": "string"
                }
            ],
            "stateMutability": "view",
            "type": "function"
        },
        {
            "inputs": [],
            "name": "ticketURI",
            "outputs": [
                {
                    "internalType": "string",
                    "name": "",
                    "type": "string"
                }
            ],
            "stateMutability": "view",
            "type": "function"
        },
        {
            "inputs": [
                {
                    "internalType": "uint256",
                    "name": "tokenId",
                    "type": "uint256"
                }
            ],
            "name": "tokenURI",
            "outputs": [
                {
                    "internalType": "string",
                    "name": "",
                    "type": "string"
                }
            ],
            "stateMutability": "view",
            "type": "function"
        },
        {
            "inputs": [
                {
                    "internalType": "address",
                    "name": "from",
                    "type": "address"
                },
                {
                    "internalType": "address",
                    "name": "to",
                    "type": "address"
                },
                {
                    "internalType": "uint256",
                    "name": "tokenId",
                    "type": "uint256"
                }
            ],
            "name": "transferFrom",
            "outputs": [],
            "stateMutability": "nonpayable",
            "type": "function"
        },
        {
            "inputs": [
                {
                    "internalType": "address",
                    "name": "newOwner",
                    "type": "address"
                }
            ],
            "name": "transferOwnership",
            "outputs": [],
            "stateMutability": "nonpayable",
            "type": "function"
        },
        {
            "inputs": [],
            "name": "unpause",
            "outputs": [],
            "stateMutability": "nonpayable",
            "type": "function"
        },
        {
            "inputs": [
                {
                    "internalType": "uint256",
                    "name": "newMaxSupply",
                    "type": "uint256"
                }
            ],
            "name": "updateMaxSupply",
            "outputs": [],
            "stateMutability": "nonpayable",
            "type": "function"
        },
        {
            "inputs": [
                {
                    "internalType": "uint256",
                    "name": "newMintPrice",
                    "type": "uint256"
                }
            ],
            "name": "updateMintPrice",
            "outputs": [],
            "stateMutability": "nonpayable",
            "type": "function"
        },
        {
            "inputs": [
                {
                    "internalType": "address",
                    "name": "newRoyaltyAddress",
                    "type": "address"
                }
            ],
            "name": "updateRoyaltyAddress",
            "outputs": [],
            "stateMutability": "nonpayable",
            "type": "function"
        },
        {
            "inputs": [],
            "name": "withdraw",
            "outputs": [],
            "stateMutability": "nonpayable",
            "type": "function"
        }
    ],
    "bytecode": "0x60806040526101f4600e553480156200001757600080fd5b50604051620041ea380380620041ea83398181016040528101906200003d91906200052e565b868681600090805190602001906200005792919062000241565b5080600190805190602001906200007092919062000241565b5050506000600960006101000a81548160ff021916908315150217905550620000ae620000a26200017360201b60201c565b6200017b60201b60201c565b6001600a8190555084600c8190555033600f60006101000a81548173ffffffffffffffffffffffffffffffffffffffff021916908373ffffffffffffffffffffffffffffffffffffffff16021790555083600d8190555081600f60006101000a81548173ffffffffffffffffffffffffffffffffffffffff021916908373ffffffffffffffffffffffffffffffffffffffff16021790555082600e8190555080601090805190602001906200016592919062000241565b5050505050505050620006a3565b600033905090565b6000600960019054906101000a900473ffffffffffffffffffffffffffffffffffffffff16905081600960016101000a81548173ffffffffffffffffffffffffffffffffffffffff021916908373ffffffffffffffffffffffffffffffffffffffff1602179055508173ffffffffffffffffffffffffffffffffffffffff168173ffffffffffffffffffffffffffffffffffffffff167f8be0079c531659141344cd1fd0a4f28419497f9722a3daafe3b4186f6b6457e060405160405180910390a35050565b8280546200024f906200066d565b90600052602060002090601f016020900481019282620002735760008555620002bf565b82601f106200028e57805160ff1916838001178555620002bf565b82800160010185558215620002bf579182015b82811115620002be578251825591602001919060010190620002a1565b5b509050620002ce9190620002d2565b5090565b5b80821115620002ed576000816000905550600101620002d3565b5090565b6000604051905090565b600080fd5b600080fd5b600080fd5b600080fd5b6000601f19601f8301169050919050565b7f4e487b7100000000000000000000000000000000000000000000000000000000600052604160045260246000fd5b6200035a826200030f565b810181811067ffffffffffffffff821117156200037c576200037b62000320565b5b80604052505050565b600062000391620002f1565b90506200039f82826200034f565b919050565b600067ffffffffffffffff821115620003c257620003c162000320565b5b620003cd826200030f565b9050602081019050919050565b60005b83811015620003fa578082015181840152602081019050620003dd565b838111156200040a576000848401525b50505050565b6000620004276200042184620003a4565b62000385565b9050828152602081018484840111156200044657620004456200030a565b5b62000453848285620003da565b509392505050565b600082601f83011262000473576200047262000305565b5b81516200048584826020860162000410565b91505092915050565b6000819050919050565b620004a3816200048e565b8114620004af57600080fd5b50565b600081519050620004c38162000498565b92915050565b600073ffffffffffffffffffffffffffffffffffffffff82169050919050565b6000620004f682620004c9565b9050919050565b6200050881620004e9565b81146200051457600080fd5b50565b6000815190506200052881620004fd565b92915050565b600080600080600080600060e0888a03121562000550576200054f620002fb565b5b600088015167ffffffffffffffff81111562000571576200057062000300565b5b6200057f8a828b016200045b565b975050602088015167ffffffffffffffff811115620005a357620005a262000300565b5b620005b18a828b016200045b565b9650506040620005c48a828b01620004b2565b9550506060620005d78a828b01620004b2565b9450506080620005ea8a828b01620004b2565b93505060a0620005fd8a828b0162000517565b92505060c088015167ffffffffffffffff81111562000621576200062062000300565b5b6200062f8a828b016200045b565b91505092959891949750929550565b7f4e487b7100000000000000000000000000000000000000000000000000000000600052602260045260246000fd5b600060028204905060018216806200068657607f821691505b602082108114156200069d576200069c6200063e565b5b50919050565b613b3780620006b36000396000f3fe6080604052600436106101ed5760003560e01c80636352211e1161010d578063a22cb465116100a0578063d5abeb011161006f578063d5abeb01146106b4578063e0df5b6f146106df578063e985e9c514610708578063f103b43314610745578063f2fde38b1461076e576101ed565b8063a22cb465146105e8578063a2e6961314610611578063b88d4fde1461064e578063c87b56dd14610677576101ed565b8063715018a6116100dc578063715018a6146105645780638456cb591461057b5780638da5cb5b1461059257806395d89b41146105bd576101ed565b80636352211e146104965780636817c76c146104d35780636f8b44b0146104fe57806370a0823114610527576101ed565b80633ccfd60b1161018557806342966c681161015457806342966c68146103ee578063519a2044146104175780635c975abb146104405780635df478381461046b576101ed565b80633ccfd60b1461037b5780633f4ba83a1461039257806340d097c3146103a957806342842e0e146103c5576101ed565b8063095ea7b3116101c1578063095ea7b3146102c057806323b872dd146102e957806326b138cb146103125780632a55205a1461033d576101ed565b8062728e46146101f257806301ffc9a71461021b57806306fdde0314610258578063081812fc14610283575b600080fd5b3480156101fe57600080fd5b5061021960048036038101906102149190612894565b610797565b005b34801561022757600080fd5b50610242600480360381019061023d9190612919565b6107a9565b60405161024f9190612961565b60405180910390f35b34801561026457600080fd5b5061026d6107bb565b60405161027a9190612a15565b60405180910390f35b34801561028f57600080fd5b506102aa60048036038101906102a59190612894565b61084d565b6040516102b79190612a78565b60405180910390f35b3480156102cc57600080fd5b506102e760048036038101906102e29190612abf565b610893565b005b3480156102f557600080fd5b50610310600480360381019061030b9190612aff565b6109ab565b005b34801561031e57600080fd5b50610327610a0b565b6040516103349190612a15565b60405180910390f35b34801561034957600080fd5b50610364600480360381019061035f9190612b52565b610a99565b604051610372929190612ba1565b60405180910390f35b34801561038757600080fd5b50610390610ad3565b005b34801561039e57600080fd5b506103a7610b2a565b005b6103c360048036038101906103be9190612bca565b610b3c565b005b3480156103d157600080fd5b506103ec60048036038101906103e79190612aff565b610c8b565b005b3480156103fa57600080fd5b5061041560048036038101906104109190612894565b610cab565b005b34801561042357600080fd5b5061043e60048036038101906104399190612bca565b610d07565b005b34801561044c57600080fd5b50610455610d53565b6040516104629190612961565b60405180910390f35b34801561047757600080fd5b50610480610d6a565b60405161048d9190612bf7565b60405180910390f35b3480156104a257600080fd5b506104bd60048036038101906104b89190612894565b610d70565b6040516104ca9190612a78565b60405180910390f35b3480156104df57600080fd5b506104e8610df7565b6040516104f59190612bf7565b60405180910390f35b34801561050a57600080fd5b5061052560048036038101906105209190612894565b610dfd565b005b34801561053357600080fd5b5061054e60048036038101906105499190612bca565b610e0f565b60405161055b9190612bf7565b60405180910390f35b34801561057057600080fd5b50610579610ec7565b005b34801561058757600080fd5b50610590610edb565b005b34801561059e57600080fd5b506105a7610eed565b6040516105b49190612a78565b60405180910390f35b3480156105c957600080fd5b506105d2610f17565b6040516105df9190612a15565b60405180910390f35b3480156105f457600080fd5b5061060f600480360381019061060a9190612c3e565b610fa9565b005b34801561061d57600080fd5b5061063860048036038101906106339190612894565b610fbf565b6040516106459190612bf7565b60405180910390f35b34801561065a57600080fd5b5061067560048036038101906106709190612db3565b610fe3565b005b34801561068357600080fd5b5061069e60048036038101906106999190612894565b611045565b6040516106ab9190612a15565b60405180910390f35b3480156106c057600080fd5b506106c9611057565b6040516106d69190612bf7565b60405180910390f35b3480156106eb57600080fd5b5061070660048036038101906107019190612ed7565b61105d565b005b34801561071457600080fd5b5061072f600480360381019061072a9190612f20565b61107f565b60405161073c9190612961565b60405180910390f35b34801561075157600080fd5b5061076c60048036038101906107679190612894565b611113565b005b34801561077a57600080fd5b5061079560048036038101906107909190612bca565b611125565b005b61079f6111a9565b80600c8190555050565b60006107b482611227565b9050919050565b6060600080546107ca90612f8f565b80601f01602080910402602001604051908101604052809291908181526020018280546107f690612f8f565b80156108435780601f1061081857610100808354040283529160200191610843565b820191906000526020600020905b81548152906001019060200180831161082657829003601f168201915b5050505050905090565b6000610858826112a1565b6004600083815260200190815260200160002060009054906101000a900473ffffffffffffffffffffffffffffffffffffffff169050919050565b600061089e82610d70565b90508073ffffffffffffffffffffffffffffffffffffffff168373ffffffffffffffffffffffffffffffffffffffff16141561090f576040517f08c379a000000000000000000000000000000000000000000000000000000000815260040161090690613033565b60405180910390fd5b8073ffffffffffffffffffffffffffffffffffffffff1661092e6112ec565b73ffffffffffffffffffffffffffffffffffffffff16148061095d575061095c816109576112ec565b61107f565b5b61099c576040517f08c379a0000000000000000000000000000000000000000000000000000000008152600401610993906130c5565b60405180910390fd5b6109a683836112f4565b505050565b6109bc6109b66112ec565b826113ad565b6109fb576040517f08c379a00000000000000000000000000000000000000000000000000000000081526004016109f290613157565b60405180910390fd5b610a06838383611442565b505050565b60108054610a1890612f8f565b80601f0160208091040260200160405190810160405280929190818152602001828054610a4490612f8f565b8015610a915780601f10610a6657610100808354040283529160200191610a91565b820191906000526020600020905b815481529060010190602001808311610a7457829003601f168201915b505050505081565b600080600f60009054906101000a900473ffffffffffffffffffffffffffffffffffffffff16610ac884610fbf565b915091509250929050565b610adb6111a9565b60004790503373ffffffffffffffffffffffffffffffffffffffff166108fc829081150290604051600060405180830381858888f19350505050158015610b26573d6000803e3d6000fd5b5050565b610b326111a9565b610b3a61173c565b565b600c54341015610b81576040517f08c379a0000000000000000000000000000000000000000000000000000000008152600401610b78906131e9565b60405180910390fd5b600d54610b8e600b61179f565b10610bce576040517f08c379a0000000000000000000000000000000000000000000000000000000008152600401610bc590613255565b60405180910390fd5b610be181610bdc600b61179f565b6117ad565b610c7e610bee600b61179f565b60108054610bfb90612f8f565b80601f0160208091040260200160405190810160405280929190818152602001828054610c2790612f8f565b8015610c745780601f10610c4957610100808354040283529160200191610c74565b820191906000526020600020905b815481529060010190602001808311610c5757829003601f168201915b50505050506117cb565b610c88600b61183f565b50565b610ca683838360405180602001604052806000815250610fe3565b505050565b610cbc610cb66112ec565b826113ad565b610cfb576040517f08c379a0000000000000000000000000000000000000000000000000000000008152600401610cf290613157565b60405180910390fd5b610d0481611855565b50565b610d0f6111a9565b80600f60006101000a81548173ffffffffffffffffffffffffffffffffffffffff021916908373ffffffffffffffffffffffffffffffffffffffff16021790555050565b6000600960009054906101000a900460ff16905090565b600e5481565b600080610d7c83611861565b9050600073ffffffffffffffffffffffffffffffffffffffff168173ffffffffffffffffffffffffffffffffffffffff161415610dee576040517f08c379a0000000000000000000000000000000000000000000000000000000008152600401610de5906132c1565b60405180910390fd5b80915050919050565b600c5481565b610e056111a9565b80600d8190555050565b60008073ffffffffffffffffffffffffffffffffffffffff168273ffffffffffffffffffffffffffffffffffffffff161415610e80576040517f08c379a0000000000000000000000000000000000000000000000000000000008152600401610e7790613353565b60405180910390fd5b600360008373ffffffffffffffffffffffffffffffffffffffff1673ffffffffffffffffffffffffffffffffffffffff168152602001908152602001600020549050919050565b610ecf6111a9565b610ed9600061189e565b565b610ee36111a9565b610eeb611964565b565b6000600960019054906101000a900473ffffffffffffffffffffffffffffffffffffffff16905090565b606060018054610f2690612f8f565b80601f0160208091040260200160405190810160405280929190818152602001828054610f5290612f8f565b8015610f9f5780601f10610f7457610100808354040283529160200191610f9f565b820191906000526020600020905b815481529060010190602001808311610f8257829003601f168201915b5050505050905090565b610fbb610fb46112ec565b83836119c7565b5050565b6000600e5461271083610fd291906133d1565b610fdc9190613402565b9050919050565b610ff4610fee6112ec565b836113ad565b611033576040517f08c379a000000000000000000000000000000000000000000000000000000000815260040161102a90613157565b60405180910390fd5b61103f84848484611b34565b50505050565b606061105082611b90565b9050919050565b600d5481565b6110656111a9565b806010908051906020019061107b929190612767565b5050565b6000600560008473ffffffffffffffffffffffffffffffffffffffff1673ffffffffffffffffffffffffffffffffffffffff16815260200190815260200160002060008373ffffffffffffffffffffffffffffffffffffffff1673ffffffffffffffffffffffffffffffffffffffff16815260200190815260200160002060009054906101000a900460ff16905092915050565b61111b6111a9565b80600d8190555050565b61112d6111a9565b600073ffffffffffffffffffffffffffffffffffffffff168173ffffffffffffffffffffffffffffffffffffffff16141561119d576040517f08c379a0000000000000000000000000000000000000000000000000000000008152600401611194906134ce565b60405180910390fd5b6111a68161189e565b50565b6111b16112ec565b73ffffffffffffffffffffffffffffffffffffffff166111cf610eed565b73ffffffffffffffffffffffffffffffffffffffff1614611225576040517f08c379a000000000000000000000000000000000000000000000000000000000815260040161121c9061353a565b60405180910390fd5b565b60007f2a55205a000000000000000000000000000000000000000000000000000000007bffffffffffffffffffffffffffffffffffffffffffffffffffffffff1916827bffffffffffffffffffffffffffffffffffffffffffffffffffffffff1916148061129a575061129982611ca3565b5b9050919050565b6112aa81611d85565b6112e9576040517f08c379a00000000000000000000000000000000000000000000000000000000081526004016112e0906132c1565b60405180910390fd5b50565b600033905090565b816004600083815260200190815260200160002060006101000a81548173ffffffffffffffffffffffffffffffffffffffff021916908373ffffffffffffffffffffffffffffffffffffffff160217905550808273ffffffffffffffffffffffffffffffffffffffff1661136783610d70565b73ffffffffffffffffffffffffffffffffffffffff167f8c5be1e5ebec7d5bd14f71427d1e84f3dd0314c0f7b2291e5b200ac8c7c3b92560405160405180910390a45050565b6000806113b983610d70565b90508073ffffffffffffffffffffffffffffffffffffffff168473ffffffffffffffffffffffffffffffffffffffff1614806113fb57506113fa818561107f565b5b8061143957508373ffffffffffffffffffffffffffffffffffffffff166114218461084d565b73ffffffffffffffffffffffffffffffffffffffff16145b91505092915050565b8273ffffffffffffffffffffffffffffffffffffffff1661146282610d70565b73ffffffffffffffffffffffffffffffffffffffff16146114b8576040517f08c379a00000000000000000000000000000000000000000000000000000000081526004016114af906135cc565b60405180910390fd5b600073ffffffffffffffffffffffffffffffffffffffff168273ffffffffffffffffffffffffffffffffffffffff161415611528576040517f08c379a000000000000000000000000000000000000000000000000000000000815260040161151f9061365e565b60405180910390fd5b6115358383836001611dc6565b8273ffffffffffffffffffffffffffffffffffffffff1661155582610d70565b73ffffffffffffffffffffffffffffffffffffffff16146115ab576040517f08c379a00000000000000000000000000000000000000000000000000000000081526004016115a2906135cc565b60405180910390fd5b6004600082815260200190815260200160002060006101000a81549073ffffffffffffffffffffffffffffffffffffffff02191690556001600360008573ffffffffffffffffffffffffffffffffffffffff1673ffffffffffffffffffffffffffffffffffffffff168152602001908152602001600020600082825403925050819055506001600360008473ffffffffffffffffffffffffffffffffffffffff1673ffffffffffffffffffffffffffffffffffffffff16815260200190815260200160002060008282540192505081905550816002600083815260200190815260200160002060006101000a81548173ffffffffffffffffffffffffffffffffffffffff021916908373ffffffffffffffffffffffffffffffffffffffff160217905550808273ffffffffffffffffffffffffffffffffffffffff168473ffffffffffffffffffffffffffffffffffffffff167fddf252ad1be2c89b69c2b068fc378daa952ba7f163c4a11628f55a4df523b3ef60405160405180910390a46117378383836001611de0565b505050565b611744611de6565b6000600960006101000a81548160ff0219169083151502179055507f5db9ee0a495bf2e6ff9c91a7834c1ba4fdd244a5e8aa4e537bd38aeae4b073aa6117886112ec565b6040516117959190612a78565b60405180910390a1565b600081600001549050919050565b6117c7828260405180602001604052806000815250611e2f565b5050565b6117d482611d85565b611813576040517f08c379a000000000000000000000000000000000000000000000000000000000815260040161180a906136f0565b60405180910390fd5b8060066000848152602001908152602001600020908051906020019061183a929190612767565b505050565b6001816000016000828254019250508190555050565b61185e81611e8a565b50565b60006002600083815260200190815260200160002060009054906101000a900473ffffffffffffffffffffffffffffffffffffffff169050919050565b6000600960019054906101000a900473ffffffffffffffffffffffffffffffffffffffff16905081600960016101000a81548173ffffffffffffffffffffffffffffffffffffffff021916908373ffffffffffffffffffffffffffffffffffffffff1602179055508173ffffffffffffffffffffffffffffffffffffffff168173ffffffffffffffffffffffffffffffffffffffff167f8be0079c531659141344cd1fd0a4f28419497f9722a3daafe3b4186f6b6457e060405160405180910390a35050565b61196c611edd565b6001600960006101000a81548160ff0219169083151502179055507f62e78cea01bee320cd4e420270b5ea74000d11b0c9f74754ebdbfc544b05a2586119b06112ec565b6040516119bd9190612a78565b60405180910390a1565b8173ffffffffffffffffffffffffffffffffffffffff168373ffffffffffffffffffffffffffffffffffffffff161415611a36576040517f08c379a0000000000000000000000000000000000000000000000000000000008152600401611a2d9061375c565b60405180910390fd5b80600560008573ffffffffffffffffffffffffffffffffffffffff1673ffffffffffffffffffffffffffffffffffffffff16815260200190815260200160002060008473ffffffffffffffffffffffffffffffffffffffff1673ffffffffffffffffffffffffffffffffffffffff16815260200190815260200160002060006101000a81548160ff0219169083151502179055508173ffffffffffffffffffffffffffffffffffffffff168373ffffffffffffffffffffffffffffffffffffffff167f17307eab39ab6107e8899845ad3d59bd9653f200f220920489ca2b5937696c3183604051611b279190612961565b60405180910390a3505050565b611b3f848484611442565b611b4b84848484611f27565b611b8a576040517f08c379a0000000000000000000000000000000000000000000000000000000008152600401611b81906137ee565b60405180910390fd5b50505050565b6060611b9b826112a1565b6000600660008481526020019081526020016000208054611bbb90612f8f565b80601f0160208091040260200160405190810160405280929190818152602001828054611be790612f8f565b8015611c345780601f10611c0957610100808354040283529160200191611c34565b820191906000526020600020905b815481529060010190602001808311611c1757829003601f168201915b505050505090506000611c456120be565b9050600081511415611c5b578192505050611c9e565b600082511115611c90578082604051602001611c7892919061384a565b60405160208183030381529060405292505050611c9e565b611c99846120d5565b925050505b919050565b60007f80ac58cd000000000000000000000000000000000000000000000000000000007bffffffffffffffffffffffffffffffffffffffffffffffffffffffff1916827bffffffffffffffffffffffffffffffffffffffffffffffffffffffff19161480611d6e57507f5b5e139f000000000000000000000000000000000000000000000000000000007bffffffffffffffffffffffffffffffffffffffffffffffffffffffff1916827bffffffffffffffffffffffffffffffffffffffffffffffffffffffff1916145b80611d7e5750611d7d8261213d565b5b9050919050565b60008073ffffffffffffffffffffffffffffffffffffffff16611da783611861565b73ffffffffffffffffffffffffffffffffffffffff1614159050919050565b611dce611edd565b611dda848484846121a7565b50505050565b50505050565b611dee610d53565b611e2d576040517f08c379a0000000000000000000000000000000000000000000000000000000008152600401611e24906138ba565b60405180910390fd5b565b611e3983836121ad565b611e466000848484611f27565b611e85576040517f08c379a0000000000000000000000000000000000000000000000000000000008152600401611e7c906137ee565b60405180910390fd5b505050565b611e93816123cb565b6000600660008381526020019081526020016000208054611eb390612f8f565b905014611eda57600660008281526020019081526020016000206000611ed991906127ed565b5b50565b611ee5610d53565b15611f25576040517f08c379a0000000000000000000000000000000000000000000000000000000008152600401611f1c90613926565b60405180910390fd5b565b6000611f488473ffffffffffffffffffffffffffffffffffffffff16612519565b156120b1578373ffffffffffffffffffffffffffffffffffffffff1663150b7a02611f716112ec565b8786866040518563ffffffff1660e01b8152600401611f93949392919061399b565b602060405180830381600087803b158015611fad57600080fd5b505af1925050508015611fde57506040513d601f19601f82011682018060405250810190611fdb91906139fc565b60015b612061573d806000811461200e576040519150601f19603f3d011682016040523d82523d6000602084013e612013565b606091505b50600081511415612059576040517f08c379a0000000000000000000000000000000000000000000000000000000008152600401612050906137ee565b60405180910390fd5b805181602001fd5b63150b7a0260e01b7bffffffffffffffffffffffffffffffffffffffffffffffffffffffff1916817bffffffffffffffffffffffffffffffffffffffffffffffffffffffff1916149150506120b6565b600190505b949350505050565b606060405180602001604052806000815250905090565b60606120e0826112a1565b60006120ea6120be565b9050600081511161210a5760405180602001604052806000815250612135565b806121148461253c565b60405160200161212592919061384a565b6040516020818303038152906040525b915050919050565b60007f01ffc9a7000000000000000000000000000000000000000000000000000000007bffffffffffffffffffffffffffffffffffffffffffffffffffffffff1916827bffffffffffffffffffffffffffffffffffffffffffffffffffffffff1916149050919050565b50505050565b600073ffffffffffffffffffffffffffffffffffffffff168273ffffffffffffffffffffffffffffffffffffffff16141561221d576040517f08c379a000000000000000000000000000000000000000000000000000000000815260040161221490613a75565b60405180910390fd5b61222681611d85565b15612266576040517f08c379a000000000000000000000000000000000000000000000000000000000815260040161225d90613ae1565b60405180910390fd5b612274600083836001611dc6565b61227d81611d85565b156122bd576040517f08c379a00000000000000000000000000000000000000000000000000000000081526004016122b490613ae1565b60405180910390fd5b6001600360008473ffffffffffffffffffffffffffffffffffffffff1673ffffffffffffffffffffffffffffffffffffffff16815260200190815260200160002060008282540192505081905550816002600083815260200190815260200160002060006101000a81548173ffffffffffffffffffffffffffffffffffffffff021916908373ffffffffffffffffffffffffffffffffffffffff160217905550808273ffffffffffffffffffffffffffffffffffffffff16600073ffffffffffffffffffffffffffffffffffffffff167fddf252ad1be2c89b69c2b068fc378daa952ba7f163c4a11628f55a4df523b3ef60405160405180910390a46123c7600083836001611de0565b5050565b60006123d682610d70565b90506123e6816000846001611dc6565b6123ef82610d70565b90506004600083815260200190815260200160002060006101000a81549073ffffffffffffffffffffffffffffffffffffffff02191690556001600360008373ffffffffffffffffffffffffffffffffffffffff1673ffffffffffffffffffffffffffffffffffffffff168152602001908152602001600020600082825403925050819055506002600083815260200190815260200160002060006101000a81549073ffffffffffffffffffffffffffffffffffffffff021916905581600073ffffffffffffffffffffffffffffffffffffffff168273ffffffffffffffffffffffffffffffffffffffff167fddf252ad1be2c89b69c2b068fc378daa952ba7f163c4a11628f55a4df523b3ef60405160405180910390a4612515816000846001611de0565b5050565b6000808273ffffffffffffffffffffffffffffffffffffffff163b119050919050565b60606000600161254b84612614565b01905060008167ffffffffffffffff81111561256a57612569612c88565b5b6040519080825280601f01601f19166020018201604052801561259c5781602001600182028036833780820191505090505b509050600082602001820190505b600115612609578080600190039150507f3031323334353637383961626364656600000000000000000000000000000000600a86061a8153600a85816125f3576125f2613373565b5b049450600085141561260457612609565b6125aa565b819350505050919050565b600080600090507a184f03e93ff9f4daa797ed6e38ed64bf6a1f0100000000000000008310612672577a184f03e93ff9f4daa797ed6e38ed64bf6a1f010000000000000000838161266857612667613373565b5b0492506040810190505b6d04ee2d6d415b85acef810000000083106126af576d04ee2d6d415b85acef810000000083816126a5576126a4613373565b5b0492506020810190505b662386f26fc1000083106126de57662386f26fc1000083816126d4576126d3613373565b5b0492506010810190505b6305f5e1008310612707576305f5e10083816126fd576126fc613373565b5b0492506008810190505b612710831061272c57612710838161272257612721613373565b5b0492506004810190505b6064831061274f576064838161274557612744613373565b5b0492506002810190505b600a831061275e576001810190505b80915050919050565b82805461277390612f8f565b90600052602060002090601f01602090048101928261279557600085556127dc565b82601f106127ae57805160ff19168380011785556127dc565b828001600101855582156127dc579182015b828111156127db5782518255916020019190600101906127c0565b5b5090506127e9919061282d565b5090565b5080546127f990612f8f565b6000825580601f1061280b575061282a565b601f016020900490600052602060002090810190612829919061282d565b5b50565b5b8082111561284657600081600090555060010161282e565b5090565b6000604051905090565b600080fd5b600080fd5b6000819050919050565b6128718161285e565b811461287c57600080fd5b50565b60008135905061288e81612868565b92915050565b6000602082840312156128aa576128a9612854565b5b60006128b88482850161287f565b91505092915050565b60007fffffffff0000000000000000000000000000000000000000000000000000000082169050919050565b6128f6816128c1565b811461290157600080fd5b50565b600081359050612913816128ed565b92915050565b60006020828403121561292f5761292e612854565b5b600061293d84828501612904565b91505092915050565b60008115159050919050565b61295b81612946565b82525050565b60006020820190506129766000830184612952565b92915050565b600081519050919050565b600082825260208201905092915050565b60005b838110156129b657808201518184015260208101905061299b565b838111156129c5576000848401525b50505050565b6000601f19601f8301169050919050565b60006129e78261297c565b6129f18185612987565b9350612a01818560208601612998565b612a0a816129cb565b840191505092915050565b60006020820190508181036000830152612a2f81846129dc565b905092915050565b600073ffffffffffffffffffffffffffffffffffffffff82169050919050565b6000612a6282612a37565b9050919050565b612a7281612a57565b82525050565b6000602082019050612a8d6000830184612a69565b92915050565b612a9c81612a57565b8114612aa757600080fd5b50565b600081359050612ab981612a93565b92915050565b60008060408385031215612ad657612ad5612854565b5b6000612ae485828601612aaa565b9250506020612af58582860161287f565b9150509250929050565b600080600060608486031215612b1857612b17612854565b5b6000612b2686828701612aaa565b9350506020612b3786828701612aaa565b9250506040612b488682870161287f565b9150509250925092565b60008060408385031215612b6957612b68612854565b5b6000612b778582860161287f565b9250506020612b888582860161287f565b9150509250929050565b612b9b8161285e565b82525050565b6000604082019050612bb66000830185612a69565b612bc36020830184612b92565b9392505050565b600060208284031215612be057612bdf612854565b5b6000612bee84828501612aaa565b91505092915050565b6000602082019050612c0c6000830184612b92565b92915050565b612c1b81612946565b8114612c2657600080fd5b50565b600081359050612c3881612c12565b92915050565b60008060408385031215612c5557612c54612854565b5b6000612c6385828601612aaa565b9250506020612c7485828601612c29565b9150509250929050565b600080fd5b600080fd5b7f4e487b7100000000000000000000000000000000000000000000000000000000600052604160045260246000fd5b612cc0826129cb565b810181811067ffffffffffffffff82111715612cdf57612cde612c88565b5b80604052505050565b6000612cf261284a565b9050612cfe8282612cb7565b919050565b600067ffffffffffffffff821115612d1e57612d1d612c88565b5b612d27826129cb565b9050602081019050919050565b82818337600083830152505050565b6000612d56612d5184612d03565b612ce8565b905082815260208101848484011115612d7257612d71612c83565b5b612d7d848285612d34565b509392505050565b600082601f830112612d9a57612d99612c7e565b5b8135612daa848260208601612d43565b91505092915050565b60008060008060808587031215612dcd57612dcc612854565b5b6000612ddb87828801612aaa565b9450506020612dec87828801612aaa565b9350506040612dfd8782880161287f565b925050606085013567ffffffffffffffff811115612e1e57612e1d612859565b5b612e2a87828801612d85565b91505092959194509250565b600067ffffffffffffffff821115612e5157612e50612c88565b5b612e5a826129cb565b9050602081019050919050565b6000612e7a612e7584612e36565b612ce8565b905082815260208101848484011115612e9657612e95612c83565b5b612ea1848285612d34565b509392505050565b600082601f830112612ebe57612ebd612c7e565b5b8135612ece848260208601612e67565b91505092915050565b600060208284031215612eed57612eec612854565b5b600082013567ffffffffffffffff811115612f0b57612f0a612859565b5b612f1784828501612ea9565b91505092915050565b60008060408385031215612f3757612f36612854565b5b6000612f4585828601612aaa565b9250506020612f5685828601612aaa565b9150509250929050565b7f4e487b7100000000000000000000000000000000000000000000000000000000600052602260045260246000fd5b60006002820490506001821680612fa757607f821691505b60208210811415612fbb57612fba612f60565b5b50919050565b7f4552433732313a20617070726f76616c20746f2063757272656e74206f776e6560008201527f7200000000000000000000000000000000000000000000000000000000000000602082015250565b600061301d602183612987565b915061302882612fc1565b604082019050919050565b6000602082019050818103600083015261304c81613010565b9050919050565b7f4552433732313a20617070726f76652063616c6c6572206973206e6f7420746f60008201527f6b656e206f776e6572206f7220617070726f76656420666f7220616c6c000000602082015250565b60006130af603d83612987565b91506130ba82613053565b604082019050919050565b600060208201905081810360008301526130de816130a2565b9050919050565b7f4552433732313a2063616c6c6572206973206e6f7420746f6b656e206f776e6560008201527f72206f7220617070726f76656400000000000000000000000000000000000000602082015250565b6000613141602d83612987565b915061314c826130e5565b604082019050919050565b6000602082019050818103600083015261317081613134565b9050919050565b7f4e6f7420656e6f756768204554482073656e743b20636865636b20707269636560008201527f2100000000000000000000000000000000000000000000000000000000000000602082015250565b60006131d3602183612987565b91506131de82613177565b604082019050919050565b60006020820190508181036000830152613202816131c6565b9050919050565b7f4d617820737570706c7920726561636865640000000000000000000000000000600082015250565b600061323f601283612987565b915061324a82613209565b602082019050919050565b6000602082019050818103600083015261326e81613232565b9050919050565b7f4552433732313a20696e76616c696420746f6b656e2049440000000000000000600082015250565b60006132ab601883612987565b91506132b682613275565b602082019050919050565b600060208201905081810360008301526132da8161329e565b9050919050565b7f4552433732313a2061646472657373207a65726f206973206e6f74206120766160008201527f6c6964206f776e65720000000000000000000000000000000000000000000000602082015250565b600061333d602983612987565b9150613348826132e1565b604082019050919050565b6000602082019050818103600083015261336c81613330565b9050919050565b7f4e487b7100000000000000000000000000000000000000000000000000000000600052601260045260246000fd5b7f4e487b7100000000000000000000000000000000000000000000000000000000600052601160045260246000fd5b60006133dc8261285e565b91506133e78361285e565b9250826133f7576133f6613373565b5b828204905092915050565b600061340d8261285e565b91506134188361285e565b9250817fffffffffffffffffffffffffffffffffffffffffffffffffffffffffffffffff0483118215151615613451576134506133a2565b5b828202905092915050565b7f4f776e61626c653a206e6577206f776e657220697320746865207a65726f206160008201527f6464726573730000000000000000000000000000000000000000000000000000602082015250565b60006134b8602683612987565b91506134c38261345c565b604082019050919050565b600060208201905081810360008301526134e7816134ab565b9050919050565b7f4f776e61626c653a2063616c6c6572206973206e6f7420746865206f776e6572600082015250565b6000613524602083612987565b915061352f826134ee565b602082019050919050565b6000602082019050818103600083015261355381613517565b9050919050565b7f4552433732313a207472616e736665722066726f6d20696e636f72726563742060008201527f6f776e6572000000000000000000000000000000000000000000000000000000602082015250565b60006135b6602583612987565b91506135c18261355a565b604082019050919050565b600060208201905081810360008301526135e5816135a9565b9050919050565b7f4552433732313a207472616e7366657220746f20746865207a65726f2061646460008201527f7265737300000000000000000000000000000000000000000000000000000000602082015250565b6000613648602483612987565b9150613653826135ec565b604082019050919050565b600060208201905081810360008301526136778161363b565b9050919050565b7f45524337323155524953746f726167653a2055524920736574206f66206e6f6e60008201527f6578697374656e7420746f6b656e000000000000000000000000000000000000602082015250565b60006136da602e83612987565b91506136e58261367e565b604082019050919050565b60006020820190508181036000830152613709816136cd565b9050919050565b7f4552433732313a20617070726f766520746f2063616c6c657200000000000000600082015250565b6000613746601983612987565b915061375182613710565b602082019050919050565b6000602082019050818103600083015261377581613739565b9050919050565b7f4552433732313a207472616e7366657220746f206e6f6e20455243373231526560008201527f63656976657220696d706c656d656e7465720000000000000000000000000000602082015250565b60006137d8603283612987565b91506137e38261377c565b604082019050919050565b60006020820190508181036000830152613807816137cb565b9050919050565b600081905092915050565b60006138248261297c565b61382e818561380e565b935061383e818560208601612998565b80840191505092915050565b60006138568285613819565b91506138628284613819565b91508190509392505050565b7f5061757361626c653a206e6f7420706175736564000000000000000000000000600082015250565b60006138a4601483612987565b91506138af8261386e565b602082019050919050565b600060208201905081810360008301526138d381613897565b9050919050565b7f5061757361626c653a2070617573656400000000000000000000000000000000600082015250565b6000613910601083612987565b915061391b826138da565b602082019050919050565b6000602082019050818103600083015261393f81613903565b9050919050565b600081519050919050565b600082825260208201905092915050565b600061396d82613946565b6139778185613951565b9350613987818560208601612998565b613990816129cb565b840191505092915050565b60006080820190506139b06000830187612a69565b6139bd6020830186612a69565b6139ca6040830185612b92565b81810360608301526139dc8184613962565b905095945050505050565b6000815190506139f6816128ed565b92915050565b600060208284031215613a1257613a11612854565b5b6000613a20848285016139e7565b91505092915050565b7f4552433732313a206d696e7420746f20746865207a65726f2061646472657373600082015250565b6000613a5f602083612987565b9150613a6a82613a29565b602082019050919050565b60006020820190508181036000830152613a8e81613a52565b9050919050565b7f4552433732313a20746f6b656e20616c7265616479206d696e74656400000000600082015250565b6000613acb601c83612987565b9150613ad682613a95565b602082019050919050565b60006020820190508181036000830152613afa81613abe565b905091905056fea26469706673582212202659f8f08ee2d737356bdfc90fe99648c090505027d631cad469d2a54993a71264736f6c63430008090033",
    "linkReferences": {},
    "deployedLinkReferences": {}
}