{
    "_format": "hh-sol-artifact-1",
    "contractName": "EventFactory",
    "sourceName": "contracts/EventFactory.sol",
    "abi": [
        {
            "anonymous": false,
            "inputs": [
                {
                    "indexed": true,
                    "internalType": "address",
                    "name": "ticketAddress",
                    "type": "address"
                },
                {
                    "indexed": true,
                    "internalType": "uint256",
                    "name": "eventId",
                    "type": "uint256"
                },
                {
                    "indexed": false,
                    "internalType": "string",
                    "name": "name",
                    "type": "string"
                },
                {
                    "indexed": false,
                    "internalType": "string",
                    "name": "description",
                    "type": "string"
                },
                {
                    "indexed": false,
                    "internalType": "string",
                    "name": "venue",
                    "type": "string"
                },
                {
                    "indexed": false,
                    "internalType": "uint256",
                    "name": "startTime",
                    "type": "uint256"
                },
                {
                    "indexed": false,
                    "internalType": "uint256",
                    "name": "endTime",
                    "type": "uint256"
                },
                {
                    "indexed": true,
                    "internalType": "address",
                    "name": "creator",
                    "type": "address"
                }
            ],
            "name": "EventCreated",
            "type": "event"
        },
        {
            "anonymous": false,
            "inputs": [
                {
                    "indexed": false,
                    "internalType": "uint8",
                    "name": "version",
                    "type": "uint8"
                }
            ],
            "name": "Initialized",
            "type": "event"
        },
        {
            "anonymous": false,
            "inputs": [
                {
                    "indexed": true,
                    "internalType": "address",
                    "name": "previousOwner",
                    "type": "address"
                },
                {
                    "indexed": true,
                    "internalType": "address",
                    "name": "newOwner",
                    "type": "address"
                }
            ],
            "name": "OwnershipTransferred",
            "type": "event"
        },
        {
            "anonymous": false,
            "inputs": [
                {
                    "indexed": false,
                    "internalType": "address",
                    "name": "account",
                    "type": "address"
                }
            ],
            "name": "Paused",
            "type": "event"
        },
        {
            "anonymous": false,
            "inputs": [
                {
                    "indexed": false,
                    "internalType": "address",
                    "name": "account",
                    "type": "address"
                }
            ],
            "name": "Unpaused",
            "type": "event"
        },
        {
            "inputs": [],
            "name": "WETH9",
            "outputs": [
                {
                    "internalType": "address",
                    "name": "",
                    "type": "address"
                }
            ],
            "stateMutability": "view",
            "type": "function"
        },
        {
            "inputs": [
                {
                    "internalType": "address",
                    "name": "",
                    "type": "address"
                },
                {
                    "internalType": "uint256",
                    "name": "",
                    "type": "uint256"
                }
            ],
            "name": "activeEvents",
            "outputs": [
                {
                    "internalType": "uint256",
                    "name": "id",
                    "type": "uint256"
                },
                {
                    "internalType": "string",
                    "name": "name",
                    "type": "string"
                },
                {
                    "internalType": "string",
                    "name": "description",
                    "type": "string"
                },
                {
                    "internalType": "string",
                    "name": "venue",
                    "type": "string"
                },
                {
                    "internalType": "uint256",
                    "name": "startTime",
                    "type": "uint256"
                },
                {
                    "internalType": "uint256",
                    "name": "endTime",
                    "type": "uint256"
                },
                {
                    "internalType": "address",
                    "name": "ticketAddress",
                    "type": "address"
                },
                {
                    "internalType": "address",
                    "name": "sbtAddress",
                    "type": "address"
                },
                {
                    "internalType": "bool",
                    "name": "isActive",
                    "type": "bool"
                },
                {
                    "internalType": "bool",
                    "name": "isVerified",
                    "type": "bool"
                },
                {
                    "internalType": "address",
                    "name": "owner",
                    "type": "address"
                }
            ],
            "stateMutability": "view",
            "type": "function"
        },
        {
            "inputs": [
                {
                    "internalType": "uint256",
                    "name": "eventId",
                    "type": "uint256"
                },
                {
                    "internalType": "uint256",
                    "name": "tokenId",
                    "type": "uint256"
                }
            ],
            "name": "claimEntry",
            "outputs": [],
            "stateMutability": "nonpayable",
            "type": "function"
        },
        {
            "inputs": [
                {
                    "internalType": "string",
                    "name": "name",
                    "type": "string"
                },
                {
                    "internalType": "string",
                    "name": "description",
                    "type": "string"
                },
                {
                    "internalType": "string",
                    "name": "venue",
                    "type": "string"
                },
                {
                    "internalType": "uint256",
                    "name": "startTime",
                    "type": "uint256"
                },
                {
                    "internalType": "uint256",
                    "name": "endTime",
                    "type": "uint256"
                },
                {
                    "internalType": "address",
                    "name": "eventTicketAddress",
                    "type": "address"
                },
                {
                    "internalType": "address",
                    "name": "sbtAddress",
                    "type": "address"
                }
            ],
            "name": "createEvent",
            "outputs": [],
            "stateMutability": "payable",
            "type": "function"
        },
        {
            "inputs": [],
            "name": "eventCreationFee",
            "outputs": [
                {
                    "internalType": "uint256",
                    "name": "",
                    "type": "uint256"
                }
            ],
            "stateMutability": "view",
            "type": "function"
        },
        {
            "inputs": [
                {
                    "internalType": "address",
                    "name": "_tyktoTokenAddress",
                    "type": "address"
                }
            ],
            "name": "initialize",
            "outputs": [],
            "stateMutability": "nonpayable",
            "type": "function"
        },
        {
            "inputs": [],
            "name": "owner",
            "outputs": [
                {
                    "internalType": "address",
                    "name": "",
                    "type": "address"
                }
            ],
            "stateMutability": "view",
            "type": "function"
        },
        {
            "inputs": [],
            "name": "pause",
            "outputs": [],
            "stateMutability": "nonpayable",
            "type": "function"
        },
        {
            "inputs": [],
            "name": "paused",
            "outputs": [
                {
                    "internalType": "bool",
                    "name": "",
                    "type": "bool"
                }
            ],
            "stateMutability": "view",
            "type": "function"
        },
        {
            "inputs": [],
            "name": "renounceOwnership",
            "outputs": [],
            "stateMutability": "nonpayable",
            "type": "function"
        },
        {
            "inputs": [
                {
                    "internalType": "uint256",
                    "name": "_eventCreationFee",
                    "type": "uint256"
                }
            ],
            "name": "setEventCreationFee",
            "outputs": [],
            "stateMutability": "nonpayable",
            "type": "function"
        },
        {
            "inputs": [
                {
                    "internalType": "uint256",
                    "name": "_eventId",
                    "type": "uint256"
                }
            ],
            "name": "setEventInactive",
            "outputs": [],
            "stateMutability": "nonpayable",
            "type": "function"
        },
        {
            "inputs": [
                {
                    "internalType": "address",
                    "name": "_tyktoTokenAddress",
                    "type": "address"
                }
            ],
            "name": "setTyktoTokenAddress",
            "outputs": [],
            "stateMutability": "nonpayable",
            "type": "function"
        },
        {
            "inputs": [
                {
                    "internalType": "uint256",
                    "name": "amountIn",
                    "type": "uint256"
                }
            ],
            "name": "swapExactInputSingle",
            "outputs": [
                {
                    "internalType": "uint256",
                    "name": "amountOut",
                    "type": "uint256"
                }
            ],
            "stateMutability": "nonpayable",
            "type": "function"
        },
        {
            "inputs": [],
            "name": "swapRouter",
            "outputs": [
                {
                    "internalType": "contract ISwapRouter",
                    "name": "",
                    "type": "address"
                }
            ],
            "stateMutability": "view",
            "type": "function"
        },
        {
            "inputs": [
                {
                    "internalType": "address",
                    "name": "newOwner",
                    "type": "address"
                }
            ],
            "name": "transferOwnership",
            "outputs": [],
            "stateMutability": "nonpayable",
            "type": "function"
        },
        {
            "inputs": [],
            "name": "tyktoToken",
            "outputs": [
                {
                    "internalType": "contract Tyk",
                    "name": "",
                    "type": "address"
                }
            ],
            "stateMutability": "view",
            "type": "function"
        },
        {
            "inputs": [],
            "name": "tyktoTokenAddress",
            "outputs": [
                {
                    "internalType": "address",
                    "name": "",
                    "type": "address"
                }
            ],
            "stateMutability": "view",
            "type": "function"
        },
        {
            "inputs": [],
            "name": "unpause",
            "outputs": [],
            "stateMutability": "nonpayable",
            "type": "function"
        },
        {
            "inputs": [
                {
                    "internalType": "uint256",
                    "name": "_eventId",
                    "type": "uint256"
                }
            ],
            "name": "verifyEvent",
            "outputs": [],
            "stateMutability": "nonpayable",
            "type": "function"
        },
        {
            "inputs": [],
            "name": "withdraw",
            "outputs": [],
            "stateMutability": "nonpayable",
            "type": "function"
        }
    ],
    "bytecode": "0x608060405234801561001057600080fd5b50612dae806100206000396000f3fe60806040526004361061012a5760003560e01c806373bd43ad116100ab578063b9ad987b1161006f578063b9ad987b1461037f578063bd54b8ab146103a8578063c31c9c07146103d1578063c4d66de8146103fc578063d903708b14610425578063f2fde38b1461044e5761012a565b806373bd43ad146102aa5780638456cb59146102e75780638da5cb5b146102fe5780638ff6212914610329578063942c2427146103545761012a565b80633f4ba83a116100f25780633f4ba83a146101fd5780634aa4a4fc146102145780635c975abb1461023f57806360c04ce21461026a578063715018a6146102935761012a565b806308d44af81461012f57806308f2eb70146101765780632c4a85491461019f5780633c20fd13146101ca5780633ccfd60b146101e6575b600080fd5b34801561013b57600080fd5b5061015660048036038101906101519190611e05565b610477565b60405161016d9b9a99989796959493929190611f17565b60405180910390f35b34801561018257600080fd5b5061019d60048036038101906101989190611fd7565b610700565b005b3480156101ab57600080fd5b506101b4610a9a565b6040516101c19190612017565b60405180910390f35b6101e460048036038101906101df9190612167565b610ac0565b005b3480156101f257600080fd5b506101fb610e3c565b005b34801561020957600080fd5b50610212610e8d565b005b34801561022057600080fd5b50610229610e9f565b6040516102369190612017565b60405180910390f35b34801561024b57600080fd5b50610254610eb7565b604051610261919061225d565b60405180910390f35b34801561027657600080fd5b50610291600480360381019061028c9190612278565b610ece565b005b34801561029f57600080fd5b506102a8610ee0565b005b3480156102b657600080fd5b506102d160048036038101906102cc9190612278565b610ef4565b6040516102de91906122a5565b60405180910390f35b3480156102f357600080fd5b506102fc6110e1565b005b34801561030a57600080fd5b506103136110f3565b6040516103209190612017565b60405180910390f35b34801561033557600080fd5b5061033e61111d565b60405161034b91906122a5565b60405180910390f35b34801561036057600080fd5b50610369611123565b604051610376919061231f565b60405180910390f35b34801561038b57600080fd5b506103a660048036038101906103a19190612278565b611149565b005b3480156103b457600080fd5b506103cf60048036038101906103ca919061233a565b6112cf565b005b3480156103dd57600080fd5b506103e661131b565b6040516103f39190612388565b60405180910390f35b34801561040857600080fd5b50610423600480360381019061041e919061233a565b611341565b005b34801561043157600080fd5b5061044c60048036038101906104479190612278565b611568565b005b34801561045a57600080fd5b506104756004803603810190610470919061233a565b611644565b005b60ce602052816000526040600020818154811061049357600080fd5b9060005260206000209060090201600091509150508060000154908060010180546104bd906123d2565b80601f01602080910402602001604051908101604052809291908181526020018280546104e9906123d2565b80156105365780601f1061050b57610100808354040283529160200191610536565b820191906000526020600020905b81548152906001019060200180831161051957829003601f168201915b50505050509080600201805461054b906123d2565b80601f0160208091040260200160405190810160405280929190818152602001828054610577906123d2565b80156105c45780601f10610599576101008083540402835291602001916105c4565b820191906000526020600020905b8154815290600101906020018083116105a757829003601f168201915b5050505050908060030180546105d9906123d2565b80601f0160208091040260200160405190810160405280929190818152602001828054610605906123d2565b80156106525780601f1061062757610100808354040283529160200191610652565b820191906000526020600020905b81548152906001019060200180831161063557829003601f168201915b5050505050908060040154908060050154908060060160009054906101000a900473ffffffffffffffffffffffffffffffffffffffff16908060070160009054906101000a900473ffffffffffffffffffffffffffffffffffffffff16908060070160149054906101000a900460ff16908060070160159054906101000a900460ff16908060080160009054906101000a900473ffffffffffffffffffffffffffffffffffffffff1690508b565b6107086116c8565b610710611712565b600060ce60003373ffffffffffffffffffffffffffffffffffffffff1673ffffffffffffffffffffffffffffffffffffffff168152602001908152602001600020905060005b8180549050811015610a8c578382828154811061077657610775612404565b5b9060005260206000209060090201600001541415610a795760008282815481106107a3576107a2612404565b5b906000526020600020906009020160060160009054906101000a900473ffffffffffffffffffffffffffffffffffffffff16905060008383815481106107ec576107eb612404565b5b906000526020600020906009020160070160009054906101000a900473ffffffffffffffffffffffffffffffffffffffff16905060008273ffffffffffffffffffffffffffffffffffffffff166370a08231336040518263ffffffff1660e01b815260040161085b9190612017565b60206040518083038186803b15801561087357600080fd5b505afa158015610887573d6000803e3d6000fd5b505050506040513d601f19601f820116820180604052508101906108ab9190612448565b116108eb576040517f08c379a00000000000000000000000000000000000000000000000000000000081526004016108e2906124e7565b60405180910390fd5b8173ffffffffffffffffffffffffffffffffffffffff166342966c68866040518263ffffffff1660e01b815260040161092491906122a5565b600060405180830381600087803b15801561093e57600080fd5b505af1158015610952573d6000803e3d6000fd5b505050508073ffffffffffffffffffffffffffffffffffffffff166340d097c3336040518263ffffffff1660e01b815260040161098f9190612017565b600060405180830381600087803b1580156109a957600080fd5b505af11580156109bd573d6000803e3d6000fd5b5050505060cb60009054906101000a900473ffffffffffffffffffffffffffffffffffffffff1673ffffffffffffffffffffffffffffffffffffffff1663a9059cbb3360646040518363ffffffff1660e01b8152600401610a1f929190612542565b602060405180830381600087803b158015610a3957600080fd5b505af1158015610a4d573d6000803e3d6000fd5b505050506040513d601f19601f82011682018060405250810190610a719190612597565b505050610a8c565b8080610a84906125f3565b915050610756565b5050610a96611762565b5050565b60cc60009054906101000a900473ffffffffffffffffffffffffffffffffffffffff1681565b610ac86116c8565b610ad0611712565b60ca54341015610b15576040517f08c379a0000000000000000000000000000000000000000000000000000000008152600401610b0c90612688565b60405180910390fd5b6000604051806101600160405280610b2d60c961176b565b81526020018981526020018881526020018781526020018681526020018581526020018473ffffffffffffffffffffffffffffffffffffffff1681526020018373ffffffffffffffffffffffffffffffffffffffff1681526020016001151581526020016000151581526020013373ffffffffffffffffffffffffffffffffffffffff16815250905060ce60003373ffffffffffffffffffffffffffffffffffffffff1673ffffffffffffffffffffffffffffffffffffffff168152602001908152602001600020819080600181540180825580915050600190039060005260206000209060090201600090919091909150600082015181600001556020820151816001019080519060200190610c45929190611cba565b506040820151816002019080519060200190610c62929190611cba565b506060820151816003019080519060200190610c7f929190611cba565b506080820151816004015560a0820151816005015560c08201518160060160006101000a81548173ffffffffffffffffffffffffffffffffffffffff021916908373ffffffffffffffffffffffffffffffffffffffff16021790555060e08201518160070160006101000a81548173ffffffffffffffffffffffffffffffffffffffff021916908373ffffffffffffffffffffffffffffffffffffffff1602179055506101008201518160070160146101000a81548160ff0219169083151502179055506101208201518160070160156101000a81548160ff0219169083151502179055506101408201518160080160006101000a81548173ffffffffffffffffffffffffffffffffffffffff021916908373ffffffffffffffffffffffffffffffffffffffff16021790555050503373ffffffffffffffffffffffffffffffffffffffff1681600001518473ffffffffffffffffffffffffffffffffffffffff167f90b980fefb15a34f9631a5a5466aa9c8c86a01a95b59545e8d2db231d73d6edc8b8b8b8b8b604051610e189594939291906126a8565b60405180910390a4610e2a60c9611779565b50610e33611762565b50505050505050565b610e4461178f565b3373ffffffffffffffffffffffffffffffffffffffff166108fc479081150290604051600060405180830381858888f19350505050158015610e8a573d6000803e3d6000fd5b50565b610e9561178f565b610e9d61180d565b565b739c3c9283d3e44854697cd22d3faa240cfb03288981565b6000606560009054906101000a900460ff16905090565b610ed661178f565b8060ca8190555050565b610ee861178f565b610ef26000611870565b565b6000610f16739c3c9283d3e44854697cd22d3faa240cfb032889333085611936565b610f57739c3c9283d3e44854697cd22d3faa240cfb03288960cd60009054906101000a900473ffffffffffffffffffffffffffffffffffffffff1684611a8e565b6000604051806101000160405280739c3c9283d3e44854697cd22d3faa240cfb03288973ffffffffffffffffffffffffffffffffffffffff16815260200160cc60009054906101000a900473ffffffffffffffffffffffffffffffffffffffff1673ffffffffffffffffffffffffffffffffffffffff168152602001610bb862ffffff1681526020013073ffffffffffffffffffffffffffffffffffffffff16815260200142815260200184815260200160008152602001600073ffffffffffffffffffffffffffffffffffffffff16815250905060cd60009054906101000a900473ffffffffffffffffffffffffffffffffffffffff1673ffffffffffffffffffffffffffffffffffffffff1663414bf389826040518263ffffffff1660e01b815260040161108791906127fd565b602060405180830381600087803b1580156110a157600080fd5b505af11580156110b5573d6000803e3d6000fd5b505050506040513d601f19601f820116820180604052508101906110d99190612448565b915050919050565b6110e961178f565b6110f1611be3565b565b6000609760009054906101000a900473ffffffffffffffffffffffffffffffffffffffff16905090565b60ca5481565b60cb60009054906101000a900473ffffffffffffffffffffffffffffffffffffffff1681565b600060ce60003373ffffffffffffffffffffffffffffffffffffffff1673ffffffffffffffffffffffffffffffffffffffff168152602001908152602001600020905060005b81805490508110156112ca57828282815481106111af576111ae612404565b5b90600052602060002090600902016000015414156112b7573373ffffffffffffffffffffffffffffffffffffffff168282815481106111f1576111f0612404565b5b906000526020600020906009020160080160009054906101000a900473ffffffffffffffffffffffffffffffffffffffff1673ffffffffffffffffffffffffffffffffffffffff1614611279576040517f08c379a00000000000000000000000000000000000000000000000000000000081526004016112709061288b565b60405180910390fd5b600082828154811061128e5761128d612404565b5b906000526020600020906009020160070160146101000a81548160ff0219169083151502179055505b80806112c2906125f3565b91505061118f565b505050565b6112d761178f565b8060cc60006101000a81548173ffffffffffffffffffffffffffffffffffffffff021916908373ffffffffffffffffffffffffffffffffffffffff16021790555050565b60cd60009054906101000a900473ffffffffffffffffffffffffffffffffffffffff1681565b60008060019054906101000a900460ff161590508080156113725750600160008054906101000a900460ff1660ff16105b8061139f575061138130611c46565b15801561139e5750600160008054906101000a900460ff1660ff16145b5b6113de576040517f08c379a00000000000000000000000000000000000000000000000000000000081526004016113d59061291d565b60405180910390fd5b60016000806101000a81548160ff021916908360ff160217905550801561141b576001600060016101000a81548160ff0219169083151502179055505b61142560c9611779565b8160cc60006101000a81548173ffffffffffffffffffffffffffffffffffffffff021916908373ffffffffffffffffffffffffffffffffffffffff1602179055508160cb60006101000a81548173ffffffffffffffffffffffffffffffffffffffff021916908373ffffffffffffffffffffffffffffffffffffffff16021790555067016345785d8a000060ca8190555073e592427a0aece92de3edee1f18e0157c0586156460cd60006101000a81548173ffffffffffffffffffffffffffffffffffffffff021916908373ffffffffffffffffffffffffffffffffffffffff16021790555080156115645760008060016101000a81548160ff0219169083151502179055507f7f26b83ff96e1f2b6a682f133852f6798a09c465da95921460cefb3847402498600160405161155b9190612985565b60405180910390a15b5050565b61157061178f565b600060ce60003373ffffffffffffffffffffffffffffffffffffffff1673ffffffffffffffffffffffffffffffffffffffff168152602001908152602001600020905060005b818054905081101561163f57828282815481106115d6576115d5612404565b5b906000526020600020906009020160000154141561162c57600182828154811061160357611602612404565b5b906000526020600020906009020160070160156101000a81548160ff0219169083151502179055505b8080611637906125f3565b9150506115b6565b505050565b61164c61178f565b600073ffffffffffffffffffffffffffffffffffffffff168173ffffffffffffffffffffffffffffffffffffffff1614156116bc576040517f08c379a00000000000000000000000000000000000000000000000000000000081526004016116b390612a12565b60405180910390fd5b6116c581611870565b50565b6116d0610eb7565b15611710576040517f08c379a000000000000000000000000000000000000000000000000000000000815260040161170790612a7e565b60405180910390fd5b565b60026001541415611758576040517f08c379a000000000000000000000000000000000000000000000000000000000815260040161174f90612aea565b60405180910390fd5b6002600181905550565b60018081905550565b600081600001549050919050565b6001816000016000828254019250508190555050565b611797611c69565b73ffffffffffffffffffffffffffffffffffffffff166117b56110f3565b73ffffffffffffffffffffffffffffffffffffffff161461180b576040517f08c379a000000000000000000000000000000000000000000000000000000000815260040161180290612b56565b60405180910390fd5b565b611815611c71565b6000606560006101000a81548160ff0219169083151502179055507f5db9ee0a495bf2e6ff9c91a7834c1ba4fdd244a5e8aa4e537bd38aeae4b073aa611859611c69565b6040516118669190612017565b60405180910390a1565b6000609760009054906101000a900473ffffffffffffffffffffffffffffffffffffffff16905081609760006101000a81548173ffffffffffffffffffffffffffffffffffffffff021916908373ffffffffffffffffffffffffffffffffffffffff1602179055508173ffffffffffffffffffffffffffffffffffffffff168173ffffffffffffffffffffffffffffffffffffffff167f8be0079c531659141344cd1fd0a4f28419497f9722a3daafe3b4186f6b6457e060405160405180910390a35050565b6000808573ffffffffffffffffffffffffffffffffffffffff166323b872dd60e01b86868660405160240161196d93929190612b76565b604051602081830303815290604052907bffffffffffffffffffffffffffffffffffffffffffffffffffffffff19166020820180517bffffffffffffffffffffffffffffffffffffffffffffffffffffffff83818316178352505050506040516119d79190612bf4565b6000604051808303816000865af19150503d8060008114611a14576040519150601f19603f3d011682016040523d82523d6000602084013e611a19565b606091505b5091509150818015611a475750600081511480611a46575080806020019051810190611a459190612597565b5b5b611a86576040517f08c379a0000000000000000000000000000000000000000000000000000000008152600401611a7d90612c57565b60405180910390fd5b505050505050565b6000808473ffffffffffffffffffffffffffffffffffffffff1663095ea7b360e01b8585604051602401611ac3929190612c77565b604051602081830303815290604052907bffffffffffffffffffffffffffffffffffffffffffffffffffffffff19166020820180517bffffffffffffffffffffffffffffffffffffffffffffffffffffffff8381831617835250505050604051611b2d9190612bf4565b6000604051808303816000865af19150503d8060008114611b6a576040519150601f19603f3d011682016040523d82523d6000602084013e611b6f565b606091505b5091509150818015611b9d5750600081511480611b9c575080806020019051810190611b9b9190612597565b5b5b611bdc576040517f08c379a0000000000000000000000000000000000000000000000000000000008152600401611bd390612cec565b60405180910390fd5b5050505050565b611beb6116c8565b6001606560006101000a81548160ff0219169083151502179055507f62e78cea01bee320cd4e420270b5ea74000d11b0c9f74754ebdbfc544b05a258611c2f611c69565b604051611c3c9190612017565b60405180910390a1565b6000808273ffffffffffffffffffffffffffffffffffffffff163b119050919050565b600033905090565b611c79610eb7565b611cb8576040517f08c379a0000000000000000000000000000000000000000000000000000000008152600401611caf90612d58565b60405180910390fd5b565b828054611cc6906123d2565b90600052602060002090601f016020900481019282611ce85760008555611d2f565b82601f10611d0157805160ff1916838001178555611d2f565b82800160010185558215611d2f579182015b82811115611d2e578251825591602001919060010190611d13565b5b509050611d3c9190611d40565b5090565b5b80821115611d59576000816000905550600101611d41565b5090565b6000604051905090565b600080fd5b600080fd5b600073ffffffffffffffffffffffffffffffffffffffff82169050919050565b6000611d9c82611d71565b9050919050565b611dac81611d91565b8114611db757600080fd5b50565b600081359050611dc981611da3565b92915050565b6000819050919050565b611de281611dcf565b8114611ded57600080fd5b50565b600081359050611dff81611dd9565b92915050565b60008060408385031215611e1c57611e1b611d67565b5b6000611e2a85828601611dba565b9250506020611e3b85828601611df0565b9150509250929050565b611e4e81611dcf565b82525050565b600081519050919050565b600082825260208201905092915050565b60005b83811015611e8e578082015181840152602081019050611e73565b83811115611e9d576000848401525b50505050565b6000601f19601f8301169050919050565b6000611ebf82611e54565b611ec98185611e5f565b9350611ed9818560208601611e70565b611ee281611ea3565b840191505092915050565b611ef681611d91565b82525050565b60008115159050919050565b611f1181611efc565b82525050565b600061016082019050611f2d600083018e611e45565b8181036020830152611f3f818d611eb4565b90508181036040830152611f53818c611eb4565b90508181036060830152611f67818b611eb4565b9050611f76608083018a611e45565b611f8360a0830189611e45565b611f9060c0830188611eed565b611f9d60e0830187611eed565b611fab610100830186611f08565b611fb9610120830185611f08565b611fc7610140830184611eed565b9c9b505050505050505050505050565b60008060408385031215611fee57611fed611d67565b5b6000611ffc85828601611df0565b925050602061200d85828601611df0565b9150509250929050565b600060208201905061202c6000830184611eed565b92915050565b600080fd5b600080fd5b7f4e487b7100000000000000000000000000000000000000000000000000000000600052604160045260246000fd5b61207482611ea3565b810181811067ffffffffffffffff821117156120935761209261203c565b5b80604052505050565b60006120a6611d5d565b90506120b2828261206b565b919050565b600067ffffffffffffffff8211156120d2576120d161203c565b5b6120db82611ea3565b9050602081019050919050565b82818337600083830152505050565b600061210a612105846120b7565b61209c565b90508281526020810184848401111561212657612125612037565b5b6121318482856120e8565b509392505050565b600082601f83011261214e5761214d612032565b5b813561215e8482602086016120f7565b91505092915050565b600080600080600080600060e0888a03121561218657612185611d67565b5b600088013567ffffffffffffffff8111156121a4576121a3611d6c565b5b6121b08a828b01612139565b975050602088013567ffffffffffffffff8111156121d1576121d0611d6c565b5b6121dd8a828b01612139565b965050604088013567ffffffffffffffff8111156121fe576121fd611d6c565b5b61220a8a828b01612139565b955050606061221b8a828b01611df0565b945050608061222c8a828b01611df0565b93505060a061223d8a828b01611dba565b92505060c061224e8a828b01611dba565b91505092959891949750929550565b60006020820190506122726000830184611f08565b92915050565b60006020828403121561228e5761228d611d67565b5b600061229c84828501611df0565b91505092915050565b60006020820190506122ba6000830184611e45565b92915050565b6000819050919050565b60006122e56122e06122db84611d71565b6122c0565b611d71565b9050919050565b60006122f7826122ca565b9050919050565b6000612309826122ec565b9050919050565b612319816122fe565b82525050565b60006020820190506123346000830184612310565b92915050565b6000602082840312156123505761234f611d67565b5b600061235e84828501611dba565b91505092915050565b6000612372826122ec565b9050919050565b61238281612367565b82525050565b600060208201905061239d6000830184612379565b92915050565b7f4e487b7100000000000000000000000000000000000000000000000000000000600052602260045260246000fd5b600060028204905060018216806123ea57607f821691505b602082108114156123fe576123fd6123a3565b5b50919050565b7f4e487b7100000000000000000000000000000000000000000000000000000000600052603260045260246000fd5b60008151905061244281611dd9565b92915050565b60006020828403121561245e5761245d611d67565b5b600061246c84828501612433565b91505092915050565b7f54796b746f506c6174666f726d3a20596f7520646f206e6f74206f776e20746860008201527f6973207469636b65740000000000000000000000000000000000000000000000602082015250565b60006124d1602983611e5f565b91506124dc82612475565b604082019050919050565b60006020820190508181036000830152612500816124c4565b9050919050565b6000819050919050565b600061252c61252761252284612507565b6122c0565b611dcf565b9050919050565b61253c81612511565b82525050565b60006040820190506125576000830185611eed565b6125646020830184612533565b9392505050565b61257481611efc565b811461257f57600080fd5b50565b6000815190506125918161256b565b92915050565b6000602082840312156125ad576125ac611d67565b5b60006125bb84828501612582565b91505092915050565b7f4e487b7100000000000000000000000000000000000000000000000000000000600052601160045260246000fd5b60006125fe82611dcf565b91507fffffffffffffffffffffffffffffffffffffffffffffffffffffffffffffffff821415612631576126306125c4565b5b600182019050919050565b7f54796b746f506c6174666f726d3a20496e73756666696369656e742066656500600082015250565b6000612672601f83611e5f565b915061267d8261263c565b602082019050919050565b600060208201905081810360008301526126a181612665565b9050919050565b600060a08201905081810360008301526126c28188611eb4565b905081810360208301526126d68187611eb4565b905081810360408301526126ea8186611eb4565b90506126f96060830185611e45565b6127066080830184611e45565b9695505050505050565b61271981611d91565b82525050565b600062ffffff82169050919050565b6127378161271f565b82525050565b61274681611dcf565b82525050565b61275581611d71565b82525050565b610100820160008201516127726000850182612710565b5060208201516127856020850182612710565b506040820151612798604085018261272e565b5060608201516127ab6060850182612710565b5060808201516127be608085018261273d565b5060a08201516127d160a085018261273d565b5060c08201516127e460c085018261273d565b5060e08201516127f760e085018261274c565b50505050565b600061010082019050612813600083018461275b565b92915050565b7f54796b746f506c6174666f726d3a20596f7520617265206e6f7420746865206f60008201527f776e6572206f662074686973206576656e740000000000000000000000000000602082015250565b6000612875603283611e5f565b915061288082612819565b604082019050919050565b600060208201905081810360008301526128a481612868565b9050919050565b7f496e697469616c697a61626c653a20636f6e747261637420697320616c72656160008201527f647920696e697469616c697a6564000000000000000000000000000000000000602082015250565b6000612907602e83611e5f565b9150612912826128ab565b604082019050919050565b60006020820190508181036000830152612936816128fa565b9050919050565b6000819050919050565b600060ff82169050919050565b600061296f61296a6129658461293d565b6122c0565b612947565b9050919050565b61297f81612954565b82525050565b600060208201905061299a6000830184612976565b92915050565b7f4f776e61626c653a206e6577206f776e657220697320746865207a65726f206160008201527f6464726573730000000000000000000000000000000000000000000000000000602082015250565b60006129fc602683611e5f565b9150612a07826129a0565b604082019050919050565b60006020820190508181036000830152612a2b816129ef565b9050919050565b7f5061757361626c653a2070617573656400000000000000000000000000000000600082015250565b6000612a68601083611e5f565b9150612a7382612a32565b602082019050919050565b60006020820190508181036000830152612a9781612a5b565b9050919050565b7f5265656e7472616e637947756172643a207265656e7472616e742063616c6c00600082015250565b6000612ad4601f83611e5f565b9150612adf82612a9e565b602082019050919050565b60006020820190508181036000830152612b0381612ac7565b9050919050565b7f4f776e61626c653a2063616c6c6572206973206e6f7420746865206f776e6572600082015250565b6000612b40602083611e5f565b9150612b4b82612b0a565b602082019050919050565b60006020820190508181036000830152612b6f81612b33565b9050919050565b6000606082019050612b8b6000830186611eed565b612b986020830185611eed565b612ba56040830184611e45565b949350505050565b600081519050919050565b600081905092915050565b6000612bce82612bad565b612bd88185612bb8565b9350612be8818560208601611e70565b80840191505092915050565b6000612c008284612bc3565b915081905092915050565b7f5354460000000000000000000000000000000000000000000000000000000000600082015250565b6000612c41600383611e5f565b9150612c4c82612c0b565b602082019050919050565b60006020820190508181036000830152612c7081612c34565b9050919050565b6000604082019050612c8c6000830185611eed565b612c996020830184611e45565b9392505050565b7f5341000000000000000000000000000000000000000000000000000000000000600082015250565b6000612cd6600283611e5f565b9150612ce182612ca0565b602082019050919050565b60006020820190508181036000830152612d0581612cc9565b9050919050565b7f5061757361626c653a206e6f7420706175736564000000000000000000000000600082015250565b6000612d42601483611e5f565b9150612d4d82612d0c565b602082019050919050565b60006020820190508181036000830152612d7181612d35565b905091905056fea2646970667358221220a79ac06cc86517fb2b36ce5edd24f302b465777e8ae63a9248b4405c6132129164736f6c63430008090033",
    "linkReferences": {},
    "deployedLinkReferences": {}
}